:020000040800F2
:10000000B0D9012095030008473A00083F3A00089C
:10001000433A0008C71E00086D3F000800000000BA
:10002000000000000000000000000000D5020008F1
:10003000311F00080000000031030008273B0008C2
:10004000B9030008B9030008B9030008B9030008A0
:10005000B9030008B9030008B9030008B903000890
:10006000B9030008B9030008B9030008B903000880
:10007000B9030008B9030008B9030008B903000870
:10008000B9030008B9030008B9030008B903000860
:10009000CD1E0008B9030008B9030008B903000821
:1000A000B9030008B9030008B9030008B903000840
:1000B000B9030008513B0008B9030008B903000860
:1000C000B9030008B9030008B9030008B903000820
:1000D000B90300085D3F0008B9030008B903000830
:1000E000B9030008B9030008B9030008B903000800
:1000F000B9030008B9030008B9030008B9030008F0
:10010000B9030008B9030008B9030008B9030008DF
:10011000B9030008B9030008B9030008B9030008CF
:10012000B9030008B9030008B9030008B9030008BF
:10013000B9030008B9030008B9030008B9030008AF
:10014000B9030008B9030008B9030008B90300089F
:10015000B9030008B9030008B9030008B90300088F
:10016000B9030008B9030008B9030008B90300087F
:10017000B9030008B9030008B90300080000000033
:10018000B9030008B903000800F002F800F092F883
:100190000AA090E8000C82448344AAF10107DA45E2
:1001A00001D100F087F8AFF2090EBAE80F0013F0A2
:1001B000010F18BFFB1A43F001031847B8EB00000A
:1001C000D8EB0000103A24BF78C878C1FAD852079B
:1001D00024BF30C830C144BF04680C6070470000C1
:1001E0000023002400250026103A28BF78C1FBD840
:1001F000520728BF30C148BF0B6070476E2900F01E
:10020000F783702900F01B8266290BF006856529AB
:100210000BF0038567290BF0008561290BF0FF8443
:1002200003681B0A28BF41F08001692900F08C8116
:10023000642900F08981752900F086816F2900F01A
:10024000E984782900F0E781E92900F08384E42932
:1002500000F08084F52900F07D84EF2900F0E68429
:10026000F82900F0E6810368DB0928BF41F080012E
:10027000632900F0F383732900F0F883E32901F088
:100280000D81F32901F01281002070471FB50BF09A
:10029000BFFC01F061F90400002000210BF064FBB9
:1002A000401C6060002000210BF048FBE0601FBD97
:1002B00010B510BD01F022F91146FFF7E7FF08F075
:1002C00041FA01F0FBF903B4FFF7F2FF03BC03F0BE
:1002D000A2FE00002C4B19680868B0E8F04F80F3CC
:1002E0000988BFF36F8F4FF0000080F311887047CB
:1002F0000000000008480068006880F308884FF09C
:10030000000080F3148862B661B6BFF34F8FBFF36D
:100310006F8F00DF00BF00BF08ED00E0DFF80C00CA
:10032000016841F470010160704700BF88ED00E092
:10033000EFF30980BFF36F8F134B1A681EF0100F95
:1003400008BF20ED108A20E9F04F106009B44FF08B
:10035000500080F31188BFF34F8FBFF36F8F0AF007
:1003600037F94FF0000080F3118809BC196808685C
:10037000B0E8F04F1EF0100F08BFB0EC108A80F309
:100380000988BFF36F8F704764000020EFF305808A
:10039000704700000C48016841F4700101600B488F
:1003A00080470B480047FEE7FEE7FEE7FEE7FEE773
:1003B000FEE7FEE7FEE7FEE7FEE700000548064928
:1003C000044A064B7047000088ED00E03D3B000802
:1003D00089010008B0D50120B0D90120B0D5012095
:1003E000704753EA020C00F069802DE9F04B4FF0A2
:1003F0000006002B1FBFB3FA83F503FA05F424FAB5
:1004000005F65E4012BF1643B2FA82F502FA05F411
:10041000C5F120051EBF22FA05FC44EA0C04203574
:1004200056EA044C4FEA144418BF641C4FF000080D
:100430004FF00009904271EB030C39D3002919BF2A
:10044000B1FA81F701FA07F6B0FA80F700FA07F679
:10045000C7F120071EBF20FA07FC46EA0C0620372A
:10046000B6FBF4FCA7EB0507103F07F01F0BCBF121
:1004700020060CFA0BFB2CFA06F644BFB346002606
:10048000202FA4BF5E464FF0000B5BEA060C08BFAE
:100490004FF0010B19EB0B09ABFB027C48EB060894
:1004A000C01B06FB02CC0BFB03CC71EB0C01C1E7BC
:1004B0000B46024641464846BDE8F08B13B54FF067
:1004C00000004FF00001AFF30080BDE81C40704712
:1004D0000A46014900F0CEBA200000200FB40449BA
:1004E00010B503AA029800F0C5FA10BC5DF814FB21
:1004F0002000002070B50C460546012A05D028785A
:10050000800600D5EA69002302E0012305E05B1CB8
:10051000934202D2E05C0028F9D1A869E618C01A1B
:10052000A861286A18442862284600F0CFF904E040
:10053000D5E9012114F8010B9047B442F8D32846BD
:1005400000F0DAF970BD00002DE9F0410646002404
:1005500010687529314616A510D000F0DEF9002884
:1005600002DA404213A507E031688A0701D512A5D7
:1005700002E0490704D511A5012401E000F0D6F9F5
:1005800000210A2206F1240709E0B0FBF2FCB0FBCF
:10059000F2F302FB1C00303078541846491C002846
:1005A000F3D123462A463046BDE8F04100F0C7B9F2
:1005B000000000002D0000002B00000020000000C3
:1005C000F0B40D460188090502D5214C7C4402E0B7
:1005D0001F4C7C440E34002100F1240608E002F098
:1005E0000F071209E75D42EA03721B097754491CA1
:1005F00052EA0307F3D102780023120704D5702DC5
:1006000006D009B1022311342246F0BC00F097B99C
:1006100001231034F8E770B504460D4621461068F2
:1006200000F084F9024629462046BDE870400023C8
:10063000C6E7D21D22F00703D3E90023C0E7036811
:10064000126843F0200303600823C3610023B7E767
:1006500010E600002DE9F05F894604464FF0000ADD
:10066000DFF874B1FB44C0F820A02046E168884759
:10067000002874D0252806D0D4E901219047206AAB
:10068000401C2062F1E700265F462046E16888476B
:100690002028054607DB312D05D2781910F8200CEB
:1006A00008B10643F1E7B00701D526F00406C4F807
:1006B0001CA00027C4F818A02A2D09D0284603F052
:1006C000A3FC38B304EB8708303DC8F8185019E094
:1006D00059F8041B204604EB87029161E1688847C2
:1006E000012F054618D1E069002820DA26F02006FF
:1006F0001DE0D8F8180000EB800005EB4000303812
:10070000C8F818002046E1688847054603F07CFCDD
:100710000028EED1012F0AD02E2D08D12046E16805
:1007200088477F1C0546022F46F02006C4DBA069DF
:10073000002803DA404246F00106A061F00701D02C
:1007400026F010066C2D0BD0682D09D04C2D39D019
:100750006A2D35D0742D35D07A2D33D016E038E09F
:10076000E1682F4620468847B842054609D16C2FDC
:1007700026D04FF48060E16806432046884705464E
:1007800004E06C2F1AD04FF4807006430DB3A5F12E
:100790004100192802D8203546F400664A46294609
:1007A000204626604E46FFF729FD80B101280BD078
:1007B000F61D26F0070000F1080956E74020E4E79F
:1007C0008020D8E70020D6E706F104094DE7284647
:1007D00052E7206ABDE8F09FA0E50000032A40F23E
:1007E000308010F0030C00F0158011F8013BBCF1D3
:1007F000020F624498BF11F801CB00F8013B38BFEB
:1008000011F8013BA2F1040298BF00F801CB38BFF8
:1008100000F8013B11F0030300F01282083AC0F027
:10082000088051F8043B083A51F804CBA0E80810BE
:10083000F5E7121D5CBF51F8043B40F8043BAFF3F1
:100840000080D20724BF11F8013B11F801CB48BF4B
:1008500011F8012B24BF00F8013B00F801CB48BF81
:1008600000F8012B704702F0FF0343EA032242EA3B
:10087000024200F019BA4FF0000200B51346944648
:100880009646203922BFA0E80C50A0E80C50B1F1E8
:100890002001BFF4F7AF090728BFA0E80C5048BFFC
:1008A0000CC05DF804EB890028BF40F8042B08BF9A
:1008B000704748BF20F8022B11F0804F18BF00F896
:1008C000012B7047704770477047704770B50446FA
:1008D00085690068C10601D5302600E02026C007E2
:1008E00007D070BDD4E9012130469047206A401CF2
:1008F00020626D1EF6D570BD70B50446856900781E
:10090000C00707D170BDD4E9012120209047206A9B
:10091000401C20626D1EF6D570BD09684A0501D5E0
:1009200040B27047C905FCD500B2704709684A0556
:1009300001D5C0B27047C905FCD580B270472DE91A
:10094000F0470D4699469246044600F12408016896
:10095000880604D5E06921F01001216000E0012043
:10096000A84201DD471B00E00027A1697A1902EBCC
:100970000900081AA0612078C00602D42046FFF7BB
:10098000A5FF002608E0D4E901211AF806009047E7
:10099000206A401C761C20624E45F4DB2078C0069D
:1009A0000AD52046FFF792FF06E0D4E90121302066
:1009B0009047206A401C2062381EA7F10107F4DC32
:1009C00007E0D4E9012118F805009047206A401C8F
:1009D0002062281EA5F10105F3DC2046FFF78CFFFD
:1009E0002078000602D50220BDE8F0870120FBE751
:1009F00011680268006A530501D508700AE0D30542
:100A000001D5088006E0130603D5C217C1E900022C
:100A100000E008600120704701694A1C0261087803
:100A2000704700B58FB0CDE901310021059105492E
:100A30007944CDE9031011466846FFF70BFE0FB06D
:100A400000BD0000E5FFFFFF10B5436913B1AFF330
:100A5000008001E0FFF74EFD012010BD127800F18B
:100A600024010A7000224A700122EDE711684FF05C
:100A7000FF32E9E7074B70B50D467B44FFF7D1FF26
:100A80000446284600F016FD10B14FF0FF3070BD4F
:100A9000204670BD074600002DE9FF5F15468A46D7
:100AA0000446DFF8AC80F8440027D8E900103E4641
:100AB000CDE9001010E03AF816106A4602A800F0DE
:100AC000FDFC411C07D02178890603D5E26939185D
:100AD00091420DD80744761C2078800602D5E06943
:100AE000B84205DDAE42E6DB3AF816000028E2D156
:100AF000A069C01BA0612046FFF7E8FED8E90010FE
:100B0000CDE90010002017E03AF818106A4602A854
:100B100000F0D4FCB0F1FF3F81460BD000250DF171
:100B2000080B05E0D4E901211BF8050090476D1C76
:100B30004D45F7D308F10100B0428046E4DB206A5E
:100B4000384420622046FFF7D7FEBDE8FF9F000033
:100B500072E100002DE9F0418046D21D22F007022B
:100B60000025D2E90002F52915A614D0011E72F164
:100B7000000106DA0023D0EB030063EB020211A6AA
:100B800008E0D8F800108B0701D50FA602E049074E
:100B900001D50EA601251146002408F1240704E022
:100BA00000F0A2F830323A55641C50EA0102F7D145
:100BB0002B46324621464046BDE8F041FFF7BFBE16
:100BC000000000002D0000002B00000020000000AD
:100BD00030B4002100F1240408E002F00705D20837
:100BE000303542EA4372DB086554491C52EA03057A
:100BF000F3D10468002310A2250708D504F02004CF
:100C00000C4304D0C46901230CA2641EC46130BC2F
:100C1000FFF795BE10B5044621461068FFF786FE23
:100C200002462046BDE810400023D1E7D21D22F045
:100C30000701D1E90023CBE70000000030000000ED
:100C400010B5203AC0F00B80B1E81850203AA0E867
:100C50001850B1E81850A0E81850BFF4F5AF5FEA9B
:100C6000027C24BFB1E81850A0E8185044BF18C94E
:100C700018C0BDE810405FEA827C24BF51F8043BF5
:100C800040F8043B08BF7047D20728BF31F8023B49
:100C900048BF11F8012B28BF20F8023B48BF00F8DD
:100CA000012B70474FF000020429C0F0128010F0B1
:100CB000030C3FF4E2ADCCF1040CBCF1020F18BF01
:100CC00000F8012BA8BF20F8022BA1EB0C01FFF7C5
:100CD000D4BD5FEAC17C24BF00F8012B00F8012BD2
:100CE00048BF00F8012B704730B5B0F10A024FEA57
:100CF000900E71F100034EEA817EB0EB0E0061EBC5
:100D000091014FEA101E4EEA017E10EB0E0041EBFE
:100D100011114FEA102E4EEA016E10EB0E0041EB5E
:100D200011214FEA104E4EEA014E10EB0E0041EB3E
:100D30001141401841F100014FEAD00040EA4170F2
:100D40004FEAD10110EB80054FEA810444EA907428
:100D500044EB01046D1944EB0404521BA3414FF012
:100D6000000348BF0A3200D530BD401C41F10001EC
:100D700030BD70472DE9FF4F0C461E464FF0FF3740
:100D80008BB0D2E90001DDF860800A908A46C1F399
:100D90000A5505B93D46002108464FF00000BAF15A
:100DA000000F00F4400005DA00EB80004FF4400132
:100DB00001EA50004FEA9059B9F1010F00DDB94640
:100DC0000A9850EA4A000ED044F61050A5F2FF35BA
:100DD00045432F14B8F1000F1ED07542291E1EDDA9
:100DE000C9F100021CE0B8F1010F4FF0000001D082
:100DF000302103E0F24305E02154401CB042FBDB0C
:100E000030460022002121540B99C1F80880C1E925
:100E100000200FB0BDE8F08FBD1B6D1CDEE74A4619
:100E200000DA694206A800F0DBFB06AB93E8070096
:100E300003AB83E8070050460A9900F089FC8DE86F
:100E40000700A0F500501F3800900398002D09DD21
:100E500042F21F014A46084403A90390684600F085
:100E6000E8FE08E0A0F500504A461F3803A90390A9
:100E7000684600F0F2FE8DE807000004000C03D085
:100E80004FF0FF30410800E01046B8F1000F03D0EA
:100E90000022009215461EE0751E05D4FFF724FFC0
:100EA000303262556D1EF9D5B3460122084302D097
:100EB00000227F1C04E02078302801D100227F1E10
:100EC000002A099786D01DE0112D07DAFFF70CFFE5
:100ED000303262556D1C50EA0102F5D1084302D050
:100EE0000098C8B10EE00021681E05E0235C625C3A
:100EF00063542254401E491C8142F7DBAB46A81BB9
:100F0000401E0990002004F80B000B98099AC0F8C5
:100F10000880C0E9002B7CE711264FF0000859E754
:100F20002DE9F04F88460446D21D22F0070191B00A
:100F3000D1E90001CDE90A0103F032F802460B982D
:100F4000C00F01D02D2007E02068810701D52B209C
:100F500002E0202101EAC000032A099001D0072AFB
:100F600005DB03464146204600F0FAFA0BE1207803
:100F7000800601D5E06900E00620B8F1650F8146E2
:100F800006D0B8F1660F18D0B8F1670F70D131E014
:100F90000020B9F1110F009001DB112301E009F1EC
:100FA00001030AAA01A90CA8FFF7E4FEDDE90C7011
:100FB000002609F10105834647E001204B460090D9
:100FC0004FF000470AAA01A90CA8FFF7D3FEDDE9FC
:100FD0000DB00C995D46002610B909F101000D18FD
:100FE000B9EB050003D4C0F1FF3609F10105A5EB0B
:100FF00009002BE0B9F1010F01DA4FF001090020DF
:10100000B9F1110F0090484601DD112300E00346BD
:101010000AAA01A90CA8FFF7ADFEDDE90C704D4648
:1010200000268346207800070AD4AB4500DA5D46E7
:1010300001A8012D04DD411911F8011C302907D048
:101040004F4502DA17F1040F04DA012082460FE05F
:101050006D1EEEE7002F02DCED1B3E4403E0781C22
:10106000A84200DD7D1CB81B00F1010A4FF00047CB
:101070002078000703D4AA4501DB4FF0FF3A002196
:10108000B7F1004F0DF143088DF8431024D0022032
:101090002B23002F01DA7F422D230A21021EA0F10B
:1010A000010000DC5FB197FBF1FC97FBF1F201FB63
:1010B0001C7C17460CF1300C08F801CDEEE7A8F1C6
:1010C000010003702188090501D5452100E0652153
:1010D000A0F1010800F8011C09980FA9A1EB08076D
:1010E000FF1D00B10120411901EBEA70A1693844EC
:1010F000081A401EA0612078C00602D42046FFF7DF
:10110000E5FB099828B1D4E901219047206A401CE9
:1011100020622078C00622D52046FFF7D7FB1EE0CC
:10112000002E04DBB34502DD01A8805D00E0302025
:10113000D4E901219047206A401C2062761CAAF164
:1011400001005FEA000A0AD100F006FAC0680168EF
:10115000405CD4E901219047206A401C2062281E8F
:10116000A5F10105DCDC07E0D4E9012118F8010B49
:101170009047206A401C2062381EA7F10107F3DC6B
:101180002046FFF7B9FB032011B043E62DE9F04FED
:1011900004460D46D21D22F0070089B0D0E9009226
:1011A00048461746394602F0FBFE0246F80F01D0CA
:1011B0002D2307E02068810701D52B2302E02021A1
:1011C00001EAC0038DF820300BB1012000E00020BF
:1011D000032A824601D0072A04DB2946204600F074
:1011E000BFF93DE12078800601D40D2500E0E569D6
:1011F000C7F30A560D2D49DA00214FEA175B08465E
:101200004FF00000002F00F4400007DA00EB8000F0
:101210004FF4400100EBD07001EA60008115012914
:1012200001DD4FF0FF3100224FEA850CBCF1180FB1
:1012300006D31346ACF118004FF08052C24003E0D1
:101240004FF4801323FA0CF30CF10C0CBCF1200FBB
:1012500004D3ACF1200C09FA0CF001E007FA0CF011
:1012600000294FF0004801DD18B90FE00ED14045CC
:101270000CD319EB02095F4121B9404502D19F43CC
:1012800029EA0209BBEB175F00D0761C2088000515
:1012900002D57B48784402E079487844193808AA96
:1012A000302302F80A30037C0AF10101002E0AF112
:1012B000020A53546A4602DC4FF0300101E04FF05D
:1012C00031014FF001088DF8001002D0A6F2FF3670
:1012D00003E059EA470100D06A4E002D02DC217874
:1012E000090704D54FF002082E218DF80110C446DD
:1012F00000210BE0C7F303433F01C35C491C6D1E93
:1013000002F80830052908F1010801DA002DF1DCA6
:1013100000210CE000EB1973491C1B786D1E082995
:1013200002F808304FEA091908F1010801DA002D26
:10133000F0DC2178890602D514E0A8F10108E04527
:1013400005DD02EB080111F8011C3029F5D0B8F1D8
:10135000000F07DD02EB080111F8011C2E2901D155
:10136000A8F10108002D05DD3E2102F808106D1ED0
:1013700008F10108407C002E02F8080008F101087D
:1013800004DA2D20764202F8080002E02B2002F851
:1013900008000A214FF47A70864208F101080BDB3D
:1013A00096FBF0F3303302F8083096FBF0F308F1C7
:1013B000010800FB136601E0642E0CDB642096FB41
:1013C000F0F3303302F8083096FBF0F308F101082F
:1013D00000FB136601E00A2E06DB96FBF1F03030CD
:1013E00002F8080008F1010896FBF1F001FB10601B
:1013F000303002F80800A16908F1010808EB050285
:1014000002EB0A00081AA0612078C00602D4204628
:10141000FFF75CFA216A08AE01EB0A00206204E0E3
:10142000D4E9012116F8010B9047BAF1010AF7D26D
:101430002078C00602D52046FFF748FA6E4609E03C
:1014400016F8010B3E280FD0D4E901219047206AFD
:10145000401C2062B8F10108F2D22046FFF74CFA96
:1014600009B00320BDE8F08F206A2844206203E021
:10147000D4E90121302090476D1EEBD3F8E700003E
:101480009FD9000002FCFFFF10B5436913B1AFF311
:10149000008001E0FFF700FB012010BD128800F181
:1014A000240182840022C2840122EDE711684FF0FA
:1014B000FF32E9E7007B00F08000704770B5164608
:1014C0000C46054600F040F8036893F80101012836
:1014D00006D0FF2C0FD8185D68B101202C7070BDAC
:1014E000D3F807013246214603F207130344284686
:1014F000BDE8704018474FF0FF3070BD754600F0F2
:10150000E3F8AE4605006946534620F007008546DD
:1015100018B020B5FEF752FFBDE820404FF000069E
:101520004FF000074FF000084FF0000B21F00701CB
:10153000AC46ACE8C009ACE8C009ACE8C009ACE80E
:10154000C0098D467047000010B500F005F8001D79
:1015500010BD00BF15A40000004870476CD50120E5
:101560002DE9F0411F46044603260168072A01F4CD
:10157000006004DB08B116A505E016A503E008B17C
:1015800015A500E015A521F010002060A069C01E7F
:10159000A0610FB1401EA0612046FFF797F94FB13F
:1015A000D4E9012138469047206A401C2062C01CC3
:1015B000206206E0206AFAE7D4E9012115F8010B60
:1015C0009047761EF8D22046FFF796F9BDE8F081E5
:1015D0004E414E006E616E00494E4600696E6600D7
:1015E0002DE9F047814616468AB0334878440DC845
:1015F0008DE80D0030487844801C03AC0DC884E8A9
:101600000D0041F69B300844372190FBF1F290FB2E
:10161000F1F5A5F1800501FB12041B3C02D56442E3
:10162000012000E00020DFF890A080460027FA4467
:10163000AAF1BE0A0DE0E00709D03246684607EB82
:1016400047010AEB810100F008FB8DE807006410F8
:101650007F1C002CEFD1184F7F44AC3F18E0E80707
:1016600014D007EB04100DF1180A90E80E008AE878
:101670000E00C068F04201D198190890324606A9C0
:1016800003A800F0EAFA03AB83E807006D10641CBE
:10169000002DE4D132466946B8F1000F03A802D00C
:1016A00000F0C7FA01E000F0D8FAC9E90001C9F872
:1016B00008200AB0BDE8F087D8D600000446AFF392
:1016C00000802046FEF7FFFD004870474CD5012002
:1016D0004FF0013C50F8042B51F8043B9A4221D1C1
:1016E000A2EB0C03934313EACC1317D150F8042B4D
:1016F00051F8043B9A4215D1A2EB0C03934313EA31
:10170000CC130BD150F8042B51F8043B9A4209D169
:10171000A2EB0C03934313EACC13DBD04FF0000091
:10172000704700BFD01A01BAB1FA81F101F0180177
:1017300022FA01F0CB40C1F12001DBB2C0B2C01AE5
:101740002CFA01F3D11A914311EAC311E6D1704783
:101750005FEA400C08BF91F0000F4FEA8C234FEA7C
:10176000C12243EA51514FEA1C5018BF00F5F04026
:101770004FEA300018BF41F000415FEA6C5C00F0B6
:101780002980BCF1FF3F08BF40F080407047130C38
:1017900006BF12044FF0100C4FF0000C130E04BFE4
:1017A00012020CF1080C130F04BF12010CF1040C0F
:1017B000930F04BF92000CF1020CD30F04BF520030
:1017C0000CF1010C11464FF00002A0F11F00A0EB3C
:1017D0000C00704711F0004F08BF704731F0004116
:1017E0003FF4D5AF0B0C06BF09044FF0100C4FF0BF
:1017F000000C0B0E04BF09020CF1080C0B0F04BF08
:1018000009010CF1040C8B0F04BF89000CF1020CD0
:10181000CB0F04BF49000CF1010CCCF12003A0EB6D
:101820000C0022FA03F302FA0CF241EA030100F180
:101830000100704720F07F4C80EA030023F07F47CF
:10184000ACEB070303F57C5300F0004003F1FF030A
:101850002DE980494FEA154B09B44FEA144325EAB4
:101860000B4E24EA03480FF2042606EB132749081F
:101870003E785FEA320203FB0667C7F5000707FB05
:1018800006F64FEA54374FEAD64606F1020607FB42
:10189000066CCCF1005C4FEA1C472CEA074C07FBB6
:1018A00006F40CFB06F504EB15464FEA961634BF1A
:1018B00000204FF000404FEAD13706FB07FC4FEA0B
:1018C0001C4C0CFB0BF7D21B03FB0CF761EB070165
:1018D0000CFB0EF7B0EB074072EB17420CFB08F75E
:1018E00034BFA2EB0742B2EB074261EB17414FEA6C
:1018F0000C444FEA910706FB07FC4FEA1C4C0CFB1B
:101900000BF7B0EBC74072EB573203FB0CF734BF59
:10191000A2EBC742B2EBC74261EB57310CFB0EF7AB
:10192000B0EBC70072EB57720CFB08F734BFA2EBA9
:10193000C702B2EBC70261EB5771039F4FEA8161A7
:1019400041EA921104EBCC044FEAD1374FEA8262AC
:1019500006FB07FC42EA90124FEA80604FEA1C4CFB
:101960000CFB0BF7D21B03FB0CF761EB07010CFB25
:101970000EF7B0EB074072EB17420CFB08F734BFD1
:10198000A2EB0742B2EB074261EB17414FEA8C55DD
:101990004FEA910704EB9C2406FB07FC4FEA1C4C22
:1019A0000CFB0BF7B0EBC74072EB573203FB0CF7A5
:1019B00034BFA2EBC742B2EBC74261EB57310CFB1D
:1019C0000EF7B0EBC70072EB57720CFB08F734BF91
:1019D000A2EBC702B2EBC70261EB577115EB4C25C6
:1019E0004FEA816141EA92114FEA82624FEAD137B0
:1019F00042EA901206FB07FC44F100044FEA8060C3
:101A00004FEA1C4C0CFB0BF7D21B03FB0CF761EBF2
:101A100007010CFB0EF7B0EB074072EB17420CFB13
:101A200008F734BFA2EB0742B2EB074261EB174164
:101A300015EB1C154FEA813141EA92414FEA82329F
:101A400042EA90424FEA80304FEA0C7644F10004BB
:101A500048EA03434EEA0B484FF0000EB2EB080C85
:101A600071EB030724BF624639464EEB0E0E4FF072
:101A7000000B0018524149414BEB0B0BB2EB080C29
:101A800071EB03077BF1000B24BF624639464EEB36
:101A90000E0E4FF0000B0018524149414BEB0B0B5F
:101AA000B2EB080C71EB03077BF1000B24BF62461D
:101AB00039464EEB0E0E51EA020718BF46F00106FA
:101AC00016EB0E7655F1000254F1000103D5BDE886
:101AD0008901BDE80088BDE88901BDE80048B61964
:101AE000524141EB0101A3F10103704780807F7EE9
:101AF0007D7C7B7A79787776767574737271717084
:101B00006F6E6E6D6C6C6B6A6A6968686766666535
:101B10006464636362616160605F5F5E5E5D5D5CC3
:101B20005C5B5B5A5A595958585757565655555534
:101B30005454535352525251515050504F4F4F4E94
:101B40004E4D4D4D4C4C4C4B4B4B4A4A4A494949E2
:101B50004848484747474746464645454544444424
:101B6000444343434342424242414141002B26D435
:101B7000770021D01CB54FEA370703B44FF01000AF
:101B80004FF010014FF000000FBCBDE810400BF10A
:101B9000010BBBF1010F08BF5FEA170722BF12F16B
:101BA000010211F101014FF0004143F1000300F087
:101BB000004043EA00007047F9D35708DAE746EAE5
:101BC000064613F1400F4FEA16461FDD13F1200FB2
:101BD000DFBF16430A46002120335B42C8D0C3F161
:101BE000200746EA064602FA07F74FEA164646EA93
:101BF0000706C3F1200722FA03F201FA07F721FAD8
:101C000003F14FF0000342EA0702B1E746EA020699
:101C100046EA06464FEA164646EA0106BCBF46EAD1
:101C20000646360C4FF000034FF000024FF0000163
:101C30009EE72DE9C048934630B491E8380007C8C4
:101C400031EA400C48BF34EA430C03D5FFF7F2FDFC
:101C5000FFF78CFFF0BCBDE800882DE9C048934633
:101C600030B491E8380007C810F0804F08BF13F077
:101C7000804F03D100F005F8FFF778FFF0BCBDE816
:101C8000008820F07F4780EA030023F07F4C07EBB9
:101C90000C03A3F57C5300F00040A3F1FE0392F087
:101CA000000F00F0B38095F0000F00F077802DE971
:101CB00001494FEA11404FEA144621EA004800FB6F
:101CC00006FC24EA064708FB06F607FB08F800FBBB
:101CD00007F718EB06484CEB164C4FEA124B18EB83
:101CE00007484FEA15464CEB174022EA0B4E0BFB18
:101CF00006FC25EA06470EFB06F607FB0EFE0BFB6D
:101D000007F71EEB064E4CEB164C4FF000061EEB91
:101D1000074E4CEB174B18EB0B0840F1000018EB8B
:101D20000E0B58EB000840F100008F1A4FF0000135
:101D30003CBFC943661B14BFB5EB040C00213CBF7C
:101D4000C943F61B4FEA17444EEA8E0E27EA0445B4
:101D50004FEA1C4704FB07622CEA074C05FB07F718
:101D60000CFB05F604FB0CFC16EB074642EB174296
:101D700016EB0C4642EB1C421BEB060658EB02022C
:101D8000414146EA9E0601D5BDE80189B619524196
:101D900041EB0101A3F10103BDE801894FEA1445BC
:101DA0004FEA114724EA054621EA074C05FB07F4F0
:101DB00006FB07F70CFB06F105FB0CFC11EB0741DA
:101DC00044EB17444FEA124711EB0C4144EB1C441F
:101DD00022EA074C05FB07F206FB07F70CFB06F6A9
:101DE00005FB0CFC16EB074642EB174216EB0C46C4
:101DF00042EB1C456A1854F1000148BF7047B61900
:101E0000524141EB0101A3F10103704795F0000F2E
:101E100037D04FEA11424FEA144721EA024624EA3A
:101E2000074C02FB07F106FB07F70CFB06F402FB6D
:101E30000CFC14EB074441EB17414FEA154714EB38
:101E40000C4441EB1C4125EA074C02FB07F506FB5D
:101E500007F70CFB06F602FB0CFC16EB074645EBFE
:101E6000174516EB0C4645EB1C42121951F10001C7
:101E700048BF7047B619524141EB0101A3F101037C
:101E800070474FEA14454FEA114724EA054621EA14
:101E9000074C05FB07F106FB07F70CFB06F24FF0BA
:101EA000000605FB0CFC12EB074241EB174112EB5D
:101EB0000C4251EB1C4148BF7047921841EB0101A5
:101EC000A3F10103704700BFFEE7000000B585B035
:101ED0000020009002AB124A0021124800F006FADE
:101EE00080B90F48006801900D48007C8DF8100003
:101EF0000D48006830B100236A4601A90A4800680D
:101F000008F07CFE00BF009838B14FF080500749C0
:101F10000860BFF34F8FBFF36F8F00BF05B000BDE8
:101F200060030020200300203C00002004ED00E0BE
:101F30007047000070B504461D460023B5F5804F7C
:101F400013D154F822300C480340D1E9000640EA8E
:101F500006108E6840EA06208E8940EA06408E69A7
:101F60003043034344F8223003E06FF0704044F8FC
:101F70002200002070BD00000000F0CF10B5034625
:101F80000022086853F8202012480240D1E90104D9
:101F90002043CC6820430C6920434C6920438C6962
:101FA0002043CC6920430C6A20434C6A20438C6A4E
:101FB0002043CC6A2043CC6B20430C6B204302436C
:101FC0008868082801D142F04002086843F82020C0
:101FD000002010BD8000F0FF30B503460024501CE7
:101FE00053F8204004F04044D1E9000540EA0510D0
:101FF0008D6840EA05208D8940EA0545088A401E23
:1020000045EA0055087D801E45EA00608D69284339
:102010000443501C43F82040002030BD10B5024658
:1020200092F82030012B01D0022B1CD101F00100CD
:1020300028B11068806840F080001468A06001F04A
:10204000020028B11068806840F400401468A06065
:1020500001F0040028B11068806840F400001468A2
:10206000A060002010BD506A40F480205062012022
:10207000F8E7F0B504460D461E4694F82070206837
:102080008368A86800B900E000BF012F01D0022FCB
:102090007CD103F0806030B903F0006018B903F020
:1020A0008050002873D0C3F30161022905D9606A0A
:1020B00040F4000060620120F0BD012088403060E3
:1020C000A86860B9B5F800C0E86840EA4C5C2068D0
:1020D00000F5C07000EB0110C0F800C00FE0D5E9BA
:1020E00001C040EACC00D5F80CC040EA0C00D4F89E
:1020F00000C00CF5C07C0CEB011CCCF80000D5F83E
:1021000010C0206800F5C07000EB0110C0F804C0DA
:10211000287D01280ED1206800F5C07000EB011069
:10212000406840F4807C206800F5C07000EB01102E
:10213000C0F804C0D079000692F806C040EA0C400E
:1021400092F805C040EA0C2C10794CEA000C20688B
:1021500000F5C07000EB0110C0F80CC0D07800068C
:1021600092F802C040EA0C4092F801C040EA0C200C
:1021700092F800C040EA0C00D4F800C00CF5C07C16
:102180000CEB011CCCF80800206801E016E00FE021
:1021900000F5C07000EB0110006840F0010C2068F1
:1021A00000F5C07000EB0110C0F800C0002083E70C
:1021B000606A40F40010606201207DE7606A40F4CC
:1021C00080206062012077E7F0B504460A46216866
:1021D00094F82050012D01D0022D7ED1424901F505
:1021E0000071086840F001000860086820F47C5025
:1021F00008600868566A40EA06200860107D00F012
:102200001F06012000FA06F3C8699843C861A1F5CA
:102210000071D069C8B9D1F80C029843C1F80C021A
:10222000908880B2968940EA064601F51070576999
:1022300040F83760108880B2168940EA064601F5FA
:102240001070576900EBC7004660D069012819D1AA
:10225000D1F80C021843C1F80C02908880B216889D
:1022600040EA064601F51070576940F837609089DA
:1022700080B2168940EA064601F51070576900EBF6
:10228000C7004660906928B9D1F804029843C1F8A4
:10229000040204E0D1F804021843C1F804021069F2
:1022A00028B9D1F814029843C1F8140204E0D1F817
:1022B00014021843C1F81402106A012804D1D1F89D
:1022C0001C021843C1F81C02D1F8000220F00100E2
:1022D000C1F800020020F0BDFFE7606A40F48020F2
:1022E00060620120F7E700000064004070B504461A
:1022F00094F82050012D01D0022D7DD151B92068D4
:10230000C06800F0030080B9606A40F400106062A9
:10231000012070BD2068006900F0030028B9606AE0
:1023200040F4001060620120F3E7206800F5D870E7
:1023300000EB0110006800F004009060906840B964
:10234000206800F5D87000EB01100068400D1060A7
:1023500007E0206800F5D87000EB01100068C008A5
:102360005060206800F5D87000EB0110006800F0A4
:102370000200D060206800F5D87000EB01104068C2
:1023800000F00F001061206800F5D87000EB01101C
:10239000406800F47F40000A9061206800F5D87022
:1023A00000EB01104068000C5061206800F5D87007
:1023B00000EB011080681870206800F5D87000EB01
:1023C0000110806800F47F40000A5870206800F512
:1023D000D87000EB0110806800F47F00000C98704A
:1023E000206800F5D87000EB01108068000ED870EE
:1023F000206800F5D87000E02FE000EB0110C06805
:102400001871206800F5D87000EB0110C06800F466
:102410007F40000A5871206800F5D87000EB011069
:10242000C06800F47F00000C9871206800F5D87037
:1024300000EB0110C068000ED87131B92068C06887
:1024400040F020002668F06005E02068006940F058
:1024500020002668306100205BE7606A40F480203D
:102460006062012055E70146002091F82020012AF2
:1024700001D0022A11D10B689B6803F0806303B17D
:10248000401C0B689B6803F0006303B1401C0B68A1
:102490009B6803F0805303B1401C704770B504463D
:1024A0000CB9012070BD94F8200010B9204600F04E
:1024B000AFF82068006820F002002168086000F092
:1024C000B1FA05460DE000F0ADFA401B0A2808D924
:1024D000606A40F400306062052084F8200001202A
:1024E000E0E72068406800F002000028EBD1206897
:1024F000006840F001002168086000F093FA05468A
:102500000DE000F08FFA401B0A2808D9606A40F4F9
:1025100000306062052084F820000120C2E72068B6
:10252000406800F001000028EBD0207E012806D191
:102530002068006840F080002168086005E020689D
:10254000006820F0800021680860607E012806D1C4
:102550002068006840F040002168086005E02068BD
:10256000006820F0400021680860A07E012806D1A4
:102570002068006840F020002168086005E02068BD
:10258000006820F0200021680860E07E012806D164
:102590002068006820F010002168086005E02068CD
:1025A000006840F0100021680860207F012806D1F3
:1025B0002068006840F008002168086005E0206895
:1025C000006820F0080021680860607F012806D1BB
:1025D0002068006840F004002168086005E0206879
:1025E000006820F0040021680860D4E90201084373
:1025F00021690843616908436168491E08432168ED
:10260000C86100206062012084F82000002049E7B2
:1026100010B586B004462849206888424AD100BFD8
:1026200000BF002000902548006840F001002349C9
:1026300008600846006800F00100009000BF00BF7D
:1026400000BF00BF00BF002000900846006840F0B7
:10265000010008600846006800F00100009000BF1B
:1026600000BF00BF00BF0020009014481030006879
:1026700040F000701149103108600846006800F011
:102680000070009000BF00BF8814019002200290EB
:1026900001200390022004900920059001A9084818
:1026A00000F0A8F84FF40060019001A9044800F080
:1026B000A1F800BF06B010BD0064004030380240F1
:1026C0000000024070B5044694F82000012822D191
:1026D000022084F820002068006820F001002168B2
:1026E000086000F09FF905460DE000F09BF9401BE3
:1026F0000A2808D9606A40F400306062052084F836
:102700002000012070BD2068406800F00100002812
:10271000EBD16062F6E7606A40F40020606201205D
:10272000F0E770B50446A56D00F07CF9064694F814
:102730003500022808D08020606500BF002084F8A2
:10274000340000BF012070BD2068006820F0160032
:10275000216808602068406920F080002168486195
:10276000206C08B9A06C28B12068006820F008002F
:10277000216808602068006820F001002168086076
:102780000FE000F04FF9801B05280AD92020606572
:1027900000BF002084F8340000BF032084F8350017
:1027A000D1E72068006800F001000028E9D194F822
:1027B0005C103F208840A86000BF002084F83400EF
:1027C00000BF012084F835000020BCE7014691F8E5
:1027D0003500022803D0802048650120704705207D
:1027E00081F835000868006820F001000A68106070
:1027F0000020F3E7F8B502460B4600250024002030
:102800000021DEE0012606FA01F51E6806EA05044D
:10281000AC4275D11E7906F00306012E04D01E7954
:1028200006F00306022E13D190684F000326BE4027
:10283000B0434F00DE68BE403043906050680126D0
:102840008E40B0431E79C6F300168E403043506070
:102850001E7906F00306032E09D0D0684F00032628
:10286000BE40B0434F009E68BE403043D0601E79EA
:1028700006F00306022E13D1CF0802F1200656F807
:1028800027004E07F70E0F26BE40B0434F07FF0E3E
:102890001E69BE403043CF0802F1200646F82700EB
:1028A00010684F000326BE40B0431E7906F00306B1
:1028B0004F00BE40304310605E6806F08056B6F1AF
:1028C000805F7DD100BF00260096404E366846F4FA
:1028D00080463E4F3E603E46366806F4804600968F
:1028E00000BF00BF3A4E8F0856F827008E07370FFB
:1028F0000F26BE40B043374EB24202D1002624E03C
:102900005EE0354EB24201D101261EE0334EB242A6
:1029100001D1022619E0324EB24201D1032614E061
:10292000304EB24201D104260FE02F4EB24201D107
:1029300005260AE02D4EB24201D1062605E02C4EB6
:10294000B24201D1072600E008268F073F0FBE40A4
:1029500030431F4E8F0846F82700264E3068A043AC
:102960005E6806F48036B6F5803F00D12043214EE4
:102970003060361D3068A0435E6806F40036B6F558
:10298000003F00D120431B4E361D3060361D30689D
:10299000A0435E6806F48016B6F5801F00D1204380
:1029A000144E08363060361D3068A0435E6806F469
:1029B0000016B6F5001F00D120430E4E0C363060D5
:1029C000491C1029FFF41EAFF8BD00004438024036
:1029D00008380140000002400004024000080240A4
:1029E000000C024000100240001402400018024097
:1029F000001C0240003C014010B5426921EA02037C
:102A000002EA010443EA0443836110BD0AB1816113
:102A100001E00B048361704701480068000C7047B7
:102A2000002004E0014800687047000028000020F2
:102A30000348006803490978084401490860704761
:102A4000280000203000002010B50A48006840F43B
:102A50000070084908600846006840F4806008601B
:102A6000032000F07FF80F2000F006F800F02AF8AD
:102A7000002010BD003C024070B504460E480078AE
:102A80004FF47A71B1FBF0F00C490968B1FBF0F535
:102A9000284600F09BFC08B1012070BD102C07D225
:102AA00000222146501E00F01EF80548046001E097
:102AB0000120F2E70020F0E73000002000000020B5
:102AC0002C000020704701460846002809DB00F072
:102AD0001F0301229A4043099B0003F1E023C3F83E
:102AE000002100BF70472DE9F05F80460D46164675
:102AF000002701F06DFA074639462A46334601F0B1
:102B00000700C0F1070ABAF1040F02D94FF0040A16
:102B100001E0C0F1070AD14600F1040ABAF1070F3B
:102B200002D24FF0000A01E0A0F1030AD4464FF0B0
:102B3000010A0AFA09FAAAF1010A0AEA020A0AFAD9
:102B40000CFA4FF0010B0BFA0CFBABF1010B0BEA8B
:102B5000030B4AEA0B042146404601F041FABDE866
:102B6000F09F000000BF00F00702064B19684FF607
:102B7000FF031940044B0B4343EA0221014B196048
:102B800000BF70470CED00E00000FA0570B5044688
:102B90000D460CB9012070BD5848006800F00700D0
:102BA000A84209D255490D700846006800F0070098
:102BB000A84201D00120EEE7207800F002000228B0
:102BC0001DD1207800F00400042805D14C4800688D
:102BD00040F4E0504A490860207800F008000828D6
:102BE00005D14748006840F46040454908604448C2
:102BF000006820F0F000A16808434149086020788F
:102C000000F00100A8B36068012807D13C480838EB
:102C10000068C0F34040B8B90120BCE760680228F2
:102C200002D06068032807D1354808380068C0F32F
:102C3000406048B90120AEE7314808380068C0F369
:102C4000400008B90120A6E72D48006820F00300E5
:102C5000616808432A490860FFF7E4FE064609E078
:102C6000FFF7E0FE801B41F28831884202D9032041
:102C700091E707E02248006800F00C006168B0EBC3
:102C8000810FEDD11D48006800F00700A84209D966
:102C90001A490D700846006800F00700A84201D0EC
:102CA000012078E7207800F00400042807D11448B8
:102CB000006820F4E050E16808431149086020787A
:102CC00000F00800082808D10D48006820F4604092
:102CD000216940EAC1000A49086000F03FF808494C
:102CE0000968C1F30311074A515CC84006490860EE
:102CF00006480068FFF7C0FE00204CE7003C024099
:102D00000838024022BC0008000000202C000020EF
:102D100001480068704700000000002000B5FFF780
:102D2000F7FF04490968C1F38221034A515CC84096
:102D300000BD00000838024032BC000800B5FFF7B3
:102D4000E7FF04490968C1F34231034A515CC840B6
:102D500000BD00000838024032BC00082DE9F047F1
:102D6000002400250026A1462548006800F00C003C
:102D700020B1042805D008283AD105E0DFF8849076
:102D800039E0DFF8849036E01D48001F006800F04D
:102D90003F041B48001F006800F4800078B11A4807
:102DA0001749091F0968C1F38811A0FB017001468A
:102DB000224600233846FDF714FB05460EE0114875
:102DC0000F49091F0968C1F38811A0FB0170014672
:102DD000224600233846FDF704FB05460848001F3D
:102DE0000068C0F30140401C4600B5FBF6F902E064
:102DF000DFF8109000BF00BF4846BDE8F087000034
:102E0000083802400024F40000127A00F8B50446A5
:102E10000CB90120F8BD207800F00100002874D022
:102E2000F948006800F00C0004280DD0F64800684E
:102E300000F00C00082813D1F348001F006800F4CC
:102E40008000B0F5800F0BD1EF4808380068C0F360
:102E50004040002859D06068002856D10120D9E7A9
:102E600000BF6068B0F5803F08D1E74808380068C7
:102E700040F48030E449083908601EE06068B0F52D
:102E8000A02F0DD1E0480838006840F48020DE49CA
:102E9000083908600846006840F4803008600CE09B
:102EA000D9480838006820F48030D74908390860CC
:102EB0000846006820F48020086000BF606890B178
:102EC000FFF7B0FD054606E0FFF7ACFD401B6428A8
:102ED00001D903209EE7CC4808380068C0F3404081
:102EE0000028F1D011E0FFF79DFD054606E0FFF751
:102EF00099FD401B642801D903208BE7C24808389C
:102F00000068C0F340400028F1D1207800F00200B2
:102F100002285FD1BC48006800F00C0058B1BA48E4
:102F2000006800F00C0008281CD1B748001F00689A
:102F300000F48000B0B9B44808380068C0F340001D
:102F400020B1E068012801D0012063E7AE480838CD
:102F5000006820F0F800216940EAC100AA49083958
:102F6000086037E0E06800B30120A8490860FFF777
:102F700059FD054606E0FFF755FD401B022801D923
:102F8000032047E7A04808380068C0F34000002845
:102F9000F1D09D480838006820F0F800216940EA27
:102FA000C10099490839086014E000209749086079
:102FB000FFF738FD054606E0FFF734FD401B022809
:102FC00001D9032026E7904808380068C0F3400084
:102FD0000028F1D1207800F0080008282CD1606981
:102FE000A8B101208A490860FFF71CFD054606E0EC
:102FF000FFF718FD401B022801D903200AE7824889
:103000006C300068C0F340000028F1D014E00020CC
:103010007F490860FFF706FD054606E0FFF702FD61
:10302000401B022801D90320F4E677486C30006881
:10303000C0F340000028F1D1207800F004000428FB
:1030400070D1002770483830006800F0805090B987
:1030500000BF002000906C483830006840F080507D
:103060006949383108600846006800F080500090D7
:1030700000BF00BF01276748006800F48070B0B946
:103080006448006840F4807062490860FFF7CAFC39
:10309000054606E0FFF7C6FC401B022801D90320C5
:1030A000B8E65C48006800F480700028F2D000BFE9
:1030B000A068012808D154486830006840F0010039
:1030C0005149683108601DE0A06805280DD14E48BF
:1030D0006830006840F004004B49683108600846D9
:1030E000006840F0010008600CE047486830006864
:1030F00020F001004449683108600846006820F06B
:103100000400086000BFA068A8B1FFF78BFC05466B
:1031100009E0FFF787FC401B41F28831884202D961
:10312000032077E626E0384868300068C0F34000A6
:103130000028EED013E0FFF775FC054608E0FFF726
:1031400071FC401B41F28831884201D9032061E6BD
:103150002D4868300068C0F340000028EFD1012FEF
:1031600007D129483830006820F08050264938318E
:10317000086000BFA069002845D02348006800F01F
:103180000C0008285DD0A069022845D100201F4905
:103190000866FFF747FC054606E0FFF743FC401BC7
:1031A000022801D9032035E6174808380068C0F323
:1031B00040600028F1D1D4E907010843616A40EA80
:1031C00081110122A06AC2EB500041EA00412C208B
:1031D000005D41EA00600C49091F086001200B49AD
:1031E0000866FFF71FFC054606E0FFF71BFC401BC7
:1031F000022801D903200DE6034808380068C0F30F
:1032000040600028F1D049E0083802400000474201
:10321000800E474200700040002021490866FFF7F9
:1032200001FC054606E0FFF7FDFB401B022801D923
:103230000320EFE51B480068C0F340600028F2D18E
:103240002CE0A069012800D1E4E51648001D0668BD
:10325000A069012820D006F48001E06981421BD1D9
:1032600006F03F01206A814216D147F6C070304017
:10327000616AB0EB811F0FD106F440310122A06AD0
:10328000C2EB5000B1EB004F06D106F070612C206C
:10329000005DB1EB006F01D00120BBE50020B9E576
:1032A000000047420038024070B504460E461546FD
:1032B0000CB9012070BD94F8490028B9002084F8A9
:1032C0004800204600F01CF804F108012068FEF7D1
:1032D00055FE3146A2682068FEF77EFE2946236B24
:1032E000D4E90102FEF726FEA168206850F821000B
:1032F00040F00100A268216841F822000020D9E7CF
:1033000010B586B0044600BF002000902248006837
:1033100040F00100204908600846006800F0010004
:10332000009000BF00BF00BF002000901A4808387E
:10333000006840F00800184908390860084600682D
:1033400000F00800009000BF00BF00BF0020009008
:103350000846006840F0100008600846006800F069
:103360001000009000BF00BF4CF2037001900220DB
:10337000029001200390022004900C20059001A9E6
:103380000648FFF737FA4FF68070019001A904480C
:10339000FFF730FA06B010BD38380240000C02408A
:1033A00000100240042808D14FF0E021096941F0E3
:1033B00004014FF0E022116107E04FF0E0210969BC
:1033C00021F004014FF0E0221161704770B504460E
:1033D0002546681EB0F1807F01D301200FE0681EF2
:1033E0004FF0E02148610F214FF0FF3000F0F8FD71
:1033F00000204FF0E021886107200861002070BDA7
:1034000070477047704710B5044620680069C0F3E4
:103410004000D8B12068C068C0F34000B0B16FF080
:10342000020021680861012020772068806900F08F
:10343000030018B12046FFF7E5FF05E0204600F045
:10344000ADF8204600F0ABF8002020772068006936
:10345000C0F38000D8B12068C068C0F38000B0B16C
:103460006FF00400216808610220207720688069DD
:1034700000F4407018B12046FFF7C4FF05E0204675
:1034800000F08CF8204600F08AF8002020772068B1
:103490000069C0F3C000D8B12068C068C0F3C000A4
:1034A000B0B16FF00800216808610420207720681F
:1034B000C06900F0030018B12046FFF7A3FF05E044
:1034C000204600F06BF8204600F069F800202077D5
:1034D00020680069C0F30010D8B12068C068C0F34C
:1034E0000010B0B16FF0100021680861082020774B
:1034F0002068C06900F4407018B12046FFF782FFD1
:1035000005E0204600F04AF8204600F048F8002088
:1035100020772068006900F0010058B12068C06879
:1035200000F0010030B16FF0010021680861204611
:1035300000F036F820680069C0F3C01058B1206868
:10354000C068C0F3C01030B16FF08000216808611E
:103550002046FFF755FF20680069C0F3801058B17E
:103560002068C068C0F3801030B16FF0400021685F
:103570000861204600F026F820680069C0F340107A
:1035800058B12068C068C0F3401030B16FF020001F
:10359000216808612046FFF734FF10BD704770476F
:1035A00010B504460548844206D100BF4FF480613F
:1035B0000348FFF721FA00BF10BD0000AC02002055
:1035C0000014024070477047704700002DE9F84F23
:1035D0000446206805682068C668206847694FF07F
:1035E0000009CA4605F00F09B9F1000F0AD105F02C
:1035F000200038B106F0200020B1204600F0E5FAA6
:10360000BDE8F88FB9F1000F72D007F0010018B9CA
:1036100006F4907000286BD005F0010030B106F47C
:10362000807018B1206C40F00100206405F00400A7
:1036300030B107F0010018B1206C40F002002064A6
:1036400005F0020030B107F0010018B1206C40F025
:103650000400206405F0080048B106F0200010B90D
:1036600007F0010018B1206C40F008002064206CC5
:1036700070B305F0200028B106F0200010B12046FC
:1036800000F0A3FA20684069C0F3801A206C00F0B3
:10369000080010B9BAF1000F23D0204600F06AFAF2
:1036A0002068406900F04000402816D12068406939
:1036B00020F0400021684861A06B50B15648A16BD2
:1036C0000865A06BFFF782F810B1A06B016D884709
:1036D0000CE02046FFF778FF08E02046FFF774FF74
:1036E00004E02046FFF770FF0020206488E7FFE732
:1036F000206B012879D105F01000002875D006F064
:103700001000002871D000BF0020009020680068E1
:10371000009020684068009000BF00BF20684069AA
:1037200000F04000402839D1A06B006840681FFAC3
:1037300080F8B8F1000F30D0A08D40452DDDA4F801
:103740002E80A06BC069B0F5807F1FD02068C06854
:1037500020F480702168C8602068406920F0010072
:10376000216848612068406920F040002168486174
:10377000202084F83E00002020632068C06820F0EC
:1037800010002168C860A06BFEF7CBFFA08DE28D12
:10379000801A81B22046FFF716FF31E7A08DE18D38
:1037A000401A1FFA80F8E08DE8B1B8F1000F1AD086
:1037B0002068C06820F490702168C8602068406963
:1037C00020F0010021684861202084F83E0000209C
:1037D00020632068C06820F010002168C86041465E
:1037E0002046FFF7F0FE0BE7FFE705F0800030B161
:1037F00006F0800018B1204600F07FFB00E705F0DE
:10380000400030B106F0400018B1204600F0CDF97C
:10381000F6E600BFF4E60000613B000810B5044680
:103820000CB9012010BDA06900B100E000BF94F800
:103830003D0028B9002084F83C00204600F028F81C
:10384000242084F83D002068C06820F400502168DE
:10385000C860204600F018FA2068006920F4904003
:10386000216808612068406920F02A0021684861C9
:103870002068C06840F400502168C86000202064BF
:10388000202084F83D0084F83E000020CAE70000B4
:1038900010B586B004462E492068884255D100BF35
:1038A00000BF002000902B48006840F0100029491C
:1038B00008600846006800F01000009000BF00BFDC
:1038C00000BF00BF00BF00200090224814380068ED
:1038D00040F001001F49143908600846006800F0F4
:1038E0000100009000BF00BF00BF00BF00BF00206C
:1038F00000900846006840F0010008600846006833
:1039000000F00100009000BF00BF00BF481501900B
:1039100002200290012003900220049007200590CD
:1039200001A90D48FEF766FF4FF480600190072063
:10393000059001A90848FEF75DFF2520FFF7C3F8B1
:10394000032211462520FFF7CEF806B010BD000077
:1039500000100140443802400000024070B50446A7
:103960000D46164694F83E00202816D105B10EB932
:10397000012070BD00BF94F83C00012801D1022055
:10398000F7E7012084F83C0000BF002020633246A6
:103990002946204600F08EFAEBE70220E9E7000016
:1039A00010B504462049206888423BD11F48008852
:1039B00000F4004088BB1D48008800F4804070B1CE
:1039C0001B4800780A2803D000201849088024E00A
:1039D0001648008840F40040144908801DE014484F
:1039E00000780D2806D11148008840F480400F4926
:1039F000088012E00E4800780C490988C1F30D01D7
:103A00000C4A505409480088401C08490880084660
:103A10000088C72801DD00200880012204490648EB
:103A2000FFF79CFF10BD00000010014024000020A3
:103A300026000020F0000020B8010020704700BFE1
:103A4000FEE700BFFEE770472DE9F0470C46DDE9D1
:103A50000867002100258C4600BF60E04FF0010898
:103A600008FA01F504EA050CAC4557D1D0F80080FE
:103A70004FEA410A4FF0030909FA0AF928EA09084E
:103A8000C0F80080D0F800804FEA410902FA09F935
:103A900048EA0908C0F80080012A01D0022A27D18B
:103AA000D0F808804FEA410A4FF0030909FA0AF9F1
:103AB00028EA0908C0F80880D0F808804FEA4109D0
:103AC00006FA09F948EA0908C0F80880D0F8049015
:103AD0004FF0010808FA01F829EA0809C0F8049033
:103AE000D0F8048003FA01F948EA0908C0F8048014
:103AF000D0F80C804FEA410A4FF0030909FA0AF99D
:103B000028EA0908C0F80C80D0F80C804FEA410977
:103B100007FA09F948EA0908C0F80C80491C10297D
:103B20009CD3BDE8F08710B5FEF782FF07F040FB9D
:103B3000012801D006F07EFE10BD00000348006899
:103B400040F47000014908607047000088ED00E013
:103B500010B50248FFF757FC10BD0000AC02002072
:103B600070B50546AC6B0020E085E0842046FFF789
:103B70002BFD70BD0168C96821F490710268D160A5
:103B80000168496921F0010102685161016B012955
:103B900005D10168C96821F010010268D1602021B7
:103BA00080F83E1000210163704710B5044620687C
:103BB000C06820F040002168C860202084F83D00E3
:103BC0002046FFF73BFF002010BD70B5044694F877
:103BD0003E00222856D1A068B0F5805F0CD1206944
:103BE00050B90025A66A20684068C0F308003080FC
:103BF000A06A801CA06215E0A56A0026A068B0F546
:103C0000805F03D0A06828B9206918B9206840688F
:103C1000287004E02068406800F07F002870A06AE7
:103C2000401CA062E08D401E80B2E08540BB206851
:103C3000C06820F020002168C8602068C06820F4B7
:103C400080702168C8602068406920F00100216808
:103C50004861202084F83E00206B01280AD12068AA
:103C6000C06820F010002168C860A18D2046FFF7D1
:103C7000AAFC02E02046FFF793FE0020206370BDFF
:103C80000020FCE70220FAE72DE9F84F04462068FF
:103C9000006920F44050E168084321680861216907
:103CA000A068084361690843E169084300902068FF
:103CB000C06849F20C618843009908432168C860D4
:103CC0002068406920F44070A16908432168486178
:103CD00076492068884203D075492068884203D11C
:103CE000FFF72CF8814602E0FFF718F88146E069FB
:103CF000B0F5004F6CD102206168A0FB0150034673
:103D00001920A9FB007001462A463846FCF769FBDA
:103D10006421B0FBF1F04FEA001A02206168A0FBB9
:103D200001510B461920A9FB00712A463846FCF7C1
:103D300058FB834602206168A0FB0150034619200E
:103D4000A9FB00712A463846FCF74BFB6421B0FB07
:103D5000F1F000EBC00101EB0010ABEB8000322171
:103D600001EBC0006421B0FBF1F000F0F8000AEBB9
:103D7000400A02206168A0FB015003461920A9FBFC
:103D8000007001462A463846FCF72BFB834602208A
:103D90006168A0FB015003461920A9FB00712A4667
:103DA0003846FCF71EFB6421B0FBF1F000EBC001CC
:103DB00001EB0010ABEB8000322101EBC00064216D
:103DC000B0FBF1F000F007005044216888606AE021
:103DD00004206168A0FB015003461920A9FB007074
:103DE00001462A463846FCF7FCFA82460420616800
:103DF000A0FB015003461920A9FB007001462A468A
:103E00003846FCF7EEFA6421B0FBF1F000EBC0019C
:103E100001EB0010AAEB8000322101EB00106421BD
:103E2000B0FBF1F000F0F00A04206168A0FB017023
:103E300003461920A9FB00513A462846FCF7D1FA5F
:103E40006421B0FBF1F00AEB001A04206168A0FBCA
:103E500001510B461920A9FB00712A463846FCF790
:103E6000C0FA834604206168A0FB01500346192074
:103E7000A9FB007001462A463846FCF7B2FA6421D5
:103E8000B0FBF1F000EBC00101EB0010ABEB8000E8
:103E9000322101EB00106421B0FBF1F000F00F00C3
:103EA000504421688860BDE8F88F00000010014090
:103EB0000014014010B5034699629A85DA85002006
:103EC0001864222083F83E0000BF002083F83C00E5
:103ED00000BF1868C06840F480701C68E060186813
:103EE000406940F001001C6860611868C06840F0DB
:103EF00020001C68E060002010BD014691F83D00E4
:103F0000212828D18868B0F5805F0BD1086948B9AD
:103F10000A6A1088C0F308000B685860086A801CA1
:103F2000086205E00B6A581C086218780B68586034
:103F3000C88C401E80B2C88458B90868C06820F098
:103F400080000B68D8600868C06840F040000B68CB
:103F5000D860002070470220FCE7000010B502483E
:103F6000FFF734FB10BD0000B801002000BFFEE7E2
:103F700070B50621302005F069FD302005F076FC93
:103F80000546062D03D00621302005F05FFD0024F4
:103F900003E007F0CBFC601C84B2C82CF9DB70BDD9
:103FA00003B401984100009850EAC12018BF0420D2
:103FB0004A0D18BF40F0010040F2FF72B2EB515FB2
:103FC00008BF40F00200012808BF052002B070477A
:103FD00002480068C0F30220704700000CED00E0CA
:103FE00010B5002804DB0A07130E054A135406E037
:103FF0000A07140E034A00F00F031B1FD45410BD10
:1040000000E400E018ED00E030380A2801D2012079
:1040100070470020704700BF7047000000F00101AA
:10402000194A1160C0F34001184AC2F88412C0F363
:104030008001154A08321160C0F30011121F11608F
:10404000C0F34011104A3C321160C0F38011104A95
:104050001160C0F3C0110C4A38321160C0F3002166
:104060000B4A121D1160C0F34021074A343211601F
:10407000C0F38021044A14321160C0F3C021024A07
:104080000C321160704700008082424200004342BF
:10409000900243422DE9F0418AB004460D4616468F
:1040A0001F46DDF8408024482449086008464760E0
:1040B000C0F80880C4600661456100210176417640
:1040C00081760121C176002101774177FEF7E6F97B
:1040D00018B101200AB0BDE8F081184800684069B5
:1040E00040F002001549096848611420FEF7EBFC16
:1040F000002206211420FEF7F6FC00200590069011
:1041000001200790002000900190029003900490FD
:10411000012008900E20099069460848FEF754F8DF
:1041200008B10220D6E70548FEF7CCFA08B1032013
:10413000D0E70020CEE7000000640040200300200C
:10414000F8B504460D461646002701200090124897
:1041500004604460002010498860C8600846066119
:104160006B462A460D48FDF784FF08B10120F8BDD3
:104170000AE0781C87B2B7F5805F05DB0748009935
:10418000FDF74CFF0120F2E70448FEF76CF9032825
:10419000EFD10020EBE700004803002020030020BF
:1041A00001490860704700003C00002086B00024F0
:1041B00075A005F0EFF94FF47A7005F0A5FF7CA02B
:1041C00005F0E8F9012000F08BFC054685B984A0D4
:1041D00005F0E0F94FF4FC608AA110221346CDE906
:1041E00000210290DC2282210A2004F0BDF90FE0B8
:1041F00088A005F0CFF94FF4784091A11022134622
:10420000CDE900210290DC2282210A2004F0ACF9E1
:104210004FF4FA7005F078FF8DA005F0BBF900208F
:1042200000F082FC054685B995A005F0B3F94FF47E
:10423000FC60A0A110221346CDE900210290DC22EF
:1042400096210A2004F090F90FE09EA005F0A2F953
:104250004FF47840A5A110221346CDE90021029029
:10426000DC2296210A2004F07FF94FF4FA7005F061
:104270004BFFA2A005F08EF985E0052C54D2DFE8B3
:1042800004F0031323334300B6EE000A8DED030A56
:104290009FEDAA0A8DED040A9FEDA80A8DED050A8F
:1042A000A7A005F077F93FE09FEDB00A8DED030A76
:1042B0009FEDA20A8DED040A9FEDA00A8DED050A7F
:1042C000ABA005F067F92FE09FED9C0A8DED030A86
:1042D0009FED9A0A8DED040AB6EE000A8DED050AEF
:1042E000AEA005F057F91FE09FED940A8DED030A8B
:1042F0009FED920A8DED040ABEEE000A8DED050ACF
:10430000B2A005F047F90FE09FED8C0A8DED030A8E
:104310009FED8A0A8DED040A9FED880A8DED050A4E
:10432000B6A005F037F900BF00BF03A800F0E8FB16
:1043300005467DB9BAA005F02DF91F20C0A11022B5
:104340001346CDE900210290DC22AA210A2004F0C4
:104350000BF90FE0BEA005F01DF94FF47840C7A19E
:1043600010221346CDE900210290DC22AA210A2066
:1043700004F0FAF8601CC4B2042C00DD002440F6FE
:10438000B83005F0C1FE78E70D0A3E3E3E20436896
:10439000617373697320436F6E74726F6C20546520
:1043A0007374205461736B2053746172740D0A002E
:1043B0000D0A5B54657374315D2053656E64206330
:1043C0006F6E74726F6C20656E61626C65206D65D6
:1043D000737361676520283078343030290D0A0006
:1043E0005B54657374315D204F4B20436F6E747264
:1043F0006F6C20656E61626C652073656E740D0A6A
:1044000000000000456E61626C653A204F4B202031
:10441000000000005B54657374315D204641494CD7
:1044200020436F6E74726F6C20656E61626C6520E4
:1044300073656E64206661696C65640D0A00000036
:10444000456E61626C653A204641494C00000000AF
:104450000D0A5B54657374325D2053656E64206D84
:104460006F74696F6E206D6F6465206D6573736125
:10447000676520283078343031290D0A00000000AB
:104480005B54657374325D204F4B204D6F74696FC0
:104490006E206D6F64652073656E74202841636BB8
:1044A00065726D616E6E20666F7277617264290D40
:1044B0000A0000004D6F64653A204F4B20202020F9
:1044C000000000005B54657374325D204641494C26
:1044D000204D6F74696F6E206D6F64652073656E1B
:1044E00064206661696C65640D0A00004D6F646547
:1044F0003A204641494C2020000000000D0A5B5440
:10450000657374335D205374617274206C6F6F70C7
:104510002073656E64696E67206D6F74696F6E20BD
:10452000636F6E74726F6C20636F6D6D616E647318
:1045300020283078343032290D0A000000000000B5
:104540000D0A5B4374726C5D20466F727761726412
:104550003A2076783D302E356D2F732C2076793DBC
:10456000302C20767A3D300D0A0000009A9999BED1
:104570000D0A5B4374726C5D204261636B776172FC
:10458000643A2076783D2D302E336D2F732C2076B3
:10459000793D302C20767A3D300D0A000D0A5B43C0
:1045A00074726C5D205475726E206C6566743A206E
:1045B00076783D302C2076793D302C20767A3D304F
:1045C0002E357261642F730D0A0000000D0A5B43E3
:1045D00074726C5D205475726E2072696768743AEB
:1045E0002076783D302C2076793D302C20767A3D2F
:1045F0002D302E357261642F730D0A000D0A5B4356
:1046000074726C5D2053746F703A2076783D302C54
:104610002076793D302C20767A3D300D0A0000005E
:104620005B4374726C5D204F4B204D6F74696F6EED
:1046300020636F6E74726F6C2073656E740D0A0068
:104640004374726C3A204F4B202020200000000061
:104650005B4374726C5D204641494C204D6F746918
:104660006F6E20636F6E74726F6C2073656E642062
:104670006661696C65640D0A000000004374726C29
:104680003A204641494C20200000000038B504463D
:104690002C210D48FCF7EFF85CB14FF08040062369
:1046A0004FF4E0224FF4A00100900020FFF7F2FC4D
:1046B00008E0002006234FF4E0224FF4A001009010
:1046C000FFF7E8FC002038BDF402002000487047E6
:1046D000F402002010B54FF4FA74FEF7A3F906496E
:1046E000496A401AA04203D90020034981F82800F2
:1046F000014890F8280010BDF402002070B504466F
:104700000D461646082E00D070BDA4F58070052811
:1047100021D2DFE800F003080E141A0013492846DE
:1047200000F096FB18E011490E31284600F0BDFB61
:1047300012E00E491631284600F09EFB0CE00B49B2
:104740001E31284600F066FB06E00849083128467D
:1047500000F06BFB00E0D7E700BFFEF763F9034909
:104760004862012081F8280000BFCDE7F402002054
:104770008CB06BA004F00EFFD0E04FF0FF3208A920
:104780007348006806F0DCFA0546012DF4D108A84C
:10479000C07A08A9897A08AA527A08AB1B7ACDE9AF
:1047A0000332CDE9051008A8C179807908AA5279A9
:1047B000CDE9002002919DF824309DF82C20654819
:1047C000089904F0E7FE9DF82C2009A90898FFF746
:1047D00095FFFFF77BFF04460898B0F5827F3DD038
:1047E00008DCB0F5807F0FD0A0F20110E0B1012805
:1047F00070D126E0B0F5806F3AD0A0F201400028D9
:104800003AD0012866D13BE020780090E378B4F9F3
:10481000060000EB80004200A08800EB8000410011
:104820004D4804F0B7FE5AE0B4F914000090B4F912
:104830001230B4F91020B4F90E1048A004F0AAFE0A
:104840004DE0B4F91C000090B4F91A30B4F9182006
:10485000B4F916104EA004F09DFE40E0B4F90C30FF
:10486000B4F90A20B4F9081056A004F093FE36E01B
:1048700060A004F08FFE32E06DA004F08BFE2EE00D
:1048800079A004F087FE4FF48070049008208DF822
:104890001C0000208DF8140001218DF81510002156
:1048A0008DF8161050218DF8171012218DF8181060
:1048B000C0218DF8191001218DF81A102C218DF8C6
:1048C0001B1000231A4604A92148006806F0A4F82A
:1048D00005E0FFE773A0089904F05CFE00BF00BF8D
:1048E000FFF7F8FE68B14FF4FC6075A11022134683
:1048F000CDE900210290DC22BE210A2003F034FE23
:104900000CE04FF4784072A110221346CDE900214B
:104910000290DC22BE210A2003F026FE2DE70000D3
:104920000D0A3E3E3E2043686173736973204665FD
:1049300065646261636B2050726F63657373696E47
:1049400067205461736B2053746172740D0A000008
:1049500014000020E0EC000828ED00085B446563CB
:104960006F64655D20576865656C2073706565646C
:104970003A2057313D25642C2057323D25642C20A8
:1049800057333D25642C2057343D25640D0A000023
:104990005B4465636F64655D20576865656C206185
:1049A0006E676C653A2057313D25642C2057323DA7
:1049B00025642C2057333D25642C2057343D256435
:1049C0000D0A00005B4465636F64655D204D6F7484
:1049D000696F6E20666565646261636B3A20767804
:1049E0003D25642C2076793D25642C20767A3D2562
:1049F000640D0A005B4C6F6F706261636B5D2052E7
:104A00006563656976656420636F6E74726F6C2090
:104A1000656E61626C65206D6573736167652028E2
:104A200073656C662D73656E74290D0A00000000B5
:104A30005B4C6F6F706261636B5D2052656365698B
:104A4000766564206D6F74696F6E206D6F6465208C
:104A50006D657373616765202873656C662D73657A
:104A60006E74290D0A0000005B4C6F6F7062616309
:104A70006B5D205265636569766564206D6F74694E
:104A80006F6E20636F6E74726F6C206D65737361EF
:104A90006765202873656C662D73656E74290D0A31
:104AA000000000005B52585D20556E6B6E6F776E94
:104AB0002049443A203078253033580D0A00000050
:104AC0005374617475733A204F4E4C494E45200023
:104AD0005374617475733A204F46464C494E4500F5
:104AE0001CB504466946204600F044FA082269468F
:104AF000D001FFF725FB08B103201CBD0020FCE717
:104B00001CB504460CB901201CBD6946204600F0C6
:104B100037FA0822694640F20240FFF711FB08B15C
:104B20000320F1E70020EFE71CB504466946204664
:104B300000F0A2FA0822694640F20140FFF700FBAC
:104B400008B103201CBD0020FCE700000EB50120C9
:104B500005F08AFE374908604FF4784036A12022DC
:104B60001346CDE900210290DC220A21084603F019
:104B7000FBFC4FF4784032A118221346CDE9002106
:104B80000290DC222F210A2003F0EEFC4FF4784043
:104B90002FA110221346CDE900210290DC224C21E6
:104BA0000A2003F0E1FC1F202DA110221346CDE9BD
:104BB00000210290DC2264210A2003F0D5FC2CA005
:104BC00004F0E8FC36A004F0E5FC3EA004F0E2FCB2
:104BD0000120FFF75BFD18B945A004F0DBFC04E001
:104BE00051A004F0D7FC00BFFEE7002210210A20EC
:104BF00005F04CFE564908600846006820B955A0EB
:104C000004F0C8FC00BFFEE70A215CA004F0C2FC6F
:104C10004F480068FFF7C4FA63480121002380224F
:104C2000CDE9001061A1644806F092FA05F066FC37
:104C30000EBD00001800002053544D333200000018
:104C400043686173736973205465737400000000D6
:104C500041544F4D40414C49454E54454B00000096
:104C60004C6F6F704261636B204D6F646500000094
:104C70000D0A3D3D3D3D3D3D3D3D3D3D3D3D3D3DC7
:104C80003D3D3D3D3D3D3D3D3D3D3D3D3D3D3D3D54
:104C90003D3D3D3D3D3D3D3D3D3D0D0A000000009B
:104CA0004368617373697320447269766572205436
:104CB0006573742050726F6772616D2053746172F6
:104CC000740D0A003D3D3D3D3D3D3D3D3D3D3D3D7D
:104CD0003D3D3D3D3D3D3D3D3D3D3D3D3D3D3D3D04
:104CE0003D3D3D3D3D3D3D3D3D3D3D3D0D0A0000D1
:104CF0005B496E69745D20436861737369732064F6
:104D0000726976657220696E697420737563636574
:104D1000737320286C6F6F706261636B206D6F64BA
:104D200065290D0A000000005B496E69745D20432F
:104D30006861737369732064726976657220696E45
:104D40006974206661696C6564210D0A00000000C9
:104D5000140000205B496E69745D204372656174C4
:104D6000652043414E205258207175657565206657
:104D700061696C6564210D0A000000005B496E6981
:104D8000745D2043414E2052582071756575652031
:104D9000637265617465642C20636170616369741A
:104DA000793D25640D0A00000400002073746172CF
:104DB000745F7461736B0000319B000800F00101A7
:104DC000104A1160C0F340010F4AC2F8BC12C0F390
:104DD00080010C4A383A1160C0F3C001121D116005
:104DE000C0F30011094A1160C0F34011121D116097
:104DF000C0F38011121D1160C109054AC2F8A81242
:104E000070470000B8824142008041429C02424209
:104E10000000424202780A7042784A7082788A70B2
:104E2000C278CA7002790A7170474278037842EA00
:104E3000032212B20A80C278837842EA032212B2B5
:104E40004A804279037942EA032212B28A8070478B
:104E500002780A7042784A7082788A70C278CA7082
:104E60004279037942EA03228A80C279837942EA4D
:104E7000032212B2CA8070474278037842EA0322C2
:104E800012B20A80C278837842EA032212B24A80C0
:104E90004279037942EA032212B28A80C279837985
:104EA00042EA032212B2CA8070474278037842EA8B
:104EB000032212B20A80C278837842EA032212B235
:104EC0004A804279037942EA032212B28A80C27987
:104ED000837942EA032212B2CA80704770B5044651
:104EE0000420FEF75FFA0A48046025464FF47A7002
:104EF00045434FF0E020006940F002004FF0E02110
:104F0000086108464561006940F00100086170BD14
:104F10001C00002030B50446002504E04FF47A70F0
:104F200000F004F86D1CA542F8D330BD70B50346FF
:104F300000224FF0E02675690D4E366803FB06F43B
:104F40004FF0E026B16910E04FF0E026B0698842EA
:104F50000BD0884202D20E1A324402E02E1A0E44BE
:104F600032440146A24200D300E0EDE700BF70BD2D
:104F70001C00002000220A604A6008707047000090
:104F800030B5D0ED001AB0EE610AD0ED011AF0EEA6
:104F9000610AD0ED021AB0EE611AF0EE001AB4EE1A
:104FA000E10AF1EE10FA04DDF0EE001AB0EE610A4B
:104FB0000AE0F8EE001AB4EEE10AF1EE10FA03D2BC
:104FC000F8EE001AB0EE610AF0EE001AF4EEE10A13
:104FD000F1EE10FA04DDF0EE001AF0EE610A0AE0DC
:104FE000F8EE001AF4EEE10AF1EE10FA03D2F8EE50
:104FF000001AF0EE610AF0EE001AB4EEE11AF1EEDA
:1050000010FA04DDF0EE001AB0EE611A0AE0F8EED4
:10501000001AB4EEE11AF1EE10FA03D2F8EE001A1B
:10502000B0EE611ADFED131A60EE211AFDEEE11AFF
:1050300011EE905A2AB2DFED0F1A60EEA11AFDEEC2
:10504000E11A11EE905A2BB2DFED0A1A61EE211A25
:10505000FDEEE11A11EE905A2CB2150A0D704A704D
:105060001D0A8D70CB70250A0D714C7100258D7154
:10507000CD7130BD00007A4400220A604A60087099
:105080007047000000BF054A126802F04002002A83
:10509000F9D0C2B2014B5A607047000000100140C5
:1050A00000B587B000BF00BF0020019038480068FD
:1050B00040F01000364908600846006800F0100013
:1050C000019000BF00BF00BF00BF00BF00200190E3
:1050D0000846006840F0100008600846006800F0CC
:1050E0001000019000BF00BF00BF00BF00BF002044
:1050F00001900846006840F010000860084600680B
:1051000000F01000019000BF00BF00BF00BF00BF53
:10511000002001900846006840F001000860084641
:10512000006800F00100019000BF00BF00BF102028
:10513000029000200390012004900220059002A913
:105140001448FDF757FB082002900020039001202F
:1051500004900220059002A90E48FDF74BFB0420A5
:10516000029000200390012004900220059002A9E3
:105170000848FDF73FFB0120029000200390022029
:105180000490059002A90448FDF734FB07B000BD68
:1051900030380240001002400000024070B5044662
:1051A000002609480588408845430021084603F049
:1051B000ABF803F057FA00BF02E004480480761C05
:1051C000AE42FAD370BD00004C0200208000006C9B
:1051D00010B5044658488471002C58D1F020564927
:1051E00008804FF4A07048800846808845F210512E
:1051F000884210D14FF430504F4908814FF4285065
:1052000048814FF42C5088814FF4F07008804FF49F
:10521000487048801AE04848808841F66311884207
:105220000DD12C20444908812B2048812A208881D7
:105230004FF4F07008804FF44870488006E02C204E
:105240003D4908812A2048812B2088813A4880885E
:1052500045F21031884205D03748808847F2967170
:10526000884206D14FF4A070334908804FF4F070A3
:1052700048803148808849F60601884258D14FF469
:10528000F0702D4908804FF44870488050E04FF48A
:10529000A07029490880F02048800846808845F29F
:1052A0001051884210D14FF43050234908814FF4F7
:1052B000285048814FF42C5088814FF44870088062
:1052C0004FF4F070488020E01B48808841F663115D
:1052D000884205D01848808849F6060188420DD1D9
:1052E0002C20154908812A2048812B2088814FF4E1
:1052F000487008804FF4F070488006E02C200E497A
:1053000008812A2048812B2088810B48808845F21B
:105310001031884205D00848808847F2967188424B
:1053200006D14FF4F070044908804FF4A070488013
:10533000002002F0CBFE10BD4C02002070B50546E7
:105340000E4614463146284602F0DEFF03F08AF985
:1053500001490C8070BD00008000006C10B5CF20AA
:1053600003F074F9002003F065F9C12003F062F93D
:10537000302003F05FF9ED2003F068F9642003F0BA
:1053800059F9032003F056F9122003F053F9812054
:1053900003F050F9E82003F059F9852003F04AF9A9
:1053A000102003F047F97A2003F044F9CB2003F0F2
:1053B0004DF9392003F03EF92C2003F03BF9002091
:1053C00003F038F9342003F035F9022003F032F904
:1053D000F72003F03BF9202003F02CF9EA2003F03A
:1053E00035F9002003F026F9002003F023F9C0204E
:1053F00003F02CF91B2003F01DF9C12003F026F95E
:10540000012003F017F9C52003F020F9302003F044
:1054100011F9302003F00EF9C72003F017F9B72077
:1054200003F008F9362003F011F9482003F002F9DF
:105430003A2003F00BF9552003F0FCF8B12003F0FB
:1054400005F9002003F0F6F81A2003F0F3F8B6206F
:1054500003F0FCF80A2003F0EDF8A22003F0EAF8CC
:10546000F22003F0F3F8002003F0E4F8262003F024
:10547000EDF8012003F0DEF8E02003F0E7F80F205C
:1054800003F0D8F82A2003F0D5F8282003F0D2F84A
:10549000082003F0CFF80E2003F0CCF8082003F02A
:1054A000C9F8542003F0C6F8A92003F0C3F843203C
:1054B00003F0C0F80A2003F0BDF80F2003F0BAF89B
:1054C000002003F0B7F8002003F0B4F8002003F048
:1054D000B1F8002003F0AEF8E12003F0B7F80020A7
:1054E00003F0A8F8152003F0A5F8172003F0A2F8A0
:1054F000072003F09FF8112003F09CF8062003F02A
:1055000099F82B2003F096F8562003F093F83C20EE
:1055100003F090F8052003F08DF8102003F08AF8CE
:105520000F2003F087F83F2003F084F83F2003F0BA
:1055300081F80F2003F07EF82B2003F087F800207D
:1055400003F078F8002003F075F8012003F072F8FA
:105550003F2003F06FF82A2003F078F8002003F0D2
:1055600069F8002003F066F8002003F063F8EF20EC
:1055700003F060F8112003F069F87820FFF7CAFC07
:10558000292003F063F810BD10B5FF2003F05EF88A
:10559000FF2003F04FF8982003F04CF8062003F0AA
:1055A00049F8BC2003F052F8012003F043F80F2023
:1055B00003F040F8612003F03DF8FF2003F03AF8D3
:1055C000012003F037F8012003F034F80B2003F03A
:1055D00031F8102003F02EF8372003F02BF8632069
:1055E00003F028F8FF2003F025F8FF2003F022F84D
:1055F000012003F01FF8012003F01CF8002003F045
:1056000019F8002003F016F8FF2003F013F85220D9
:1056100003F010F8012003F00DF8002003F00AF861
:10562000402003F007F8BD2003F010F8012003F03C
:1056300001F8232002F0FEFF452002F0FBFF672067
:1056400002F0F8FF012002F0F5FF232002F0F2FF44
:10565000452002F0EFFF672002F0ECFFBE2002F0D1
:10566000F5FF002002F0E6FF012002F0E3FFAB208F
:1056700002F0E0FF602002F0DDFF222002F0DAFFFE
:10568000222002F0D7FF222002F0D4FF222002F0D5
:10569000D1FF222002F0CEFFC72002F0D7FF362034
:1056A00002F0C8FFED2002F0D1FF7F2002F0C2FF20
:1056B0000F2002F0BFFFC02002F0C8FF0F2002F051
:1056C000B9FF0B2002F0B6FF0A2002F0B3FFFC2066
:1056D00002F0BCFF082002F0ADFFDF2002F0B6FFB1
:1056E000002002F0A7FF002002F0A4FF002002F03B
:1056F000A1FF002002F09EFF002002F09BFF20206F
:1057000002F098FFF32002F0A1FF742002F092FF54
:10571000B42002F09BFF002002F08CFF002002F07A
:1057200089FF002002F086FFF72002F08FFF822021
:1057300002F080FFB12002F089FF002002F07AFF22
:10574000132002F077FF132002F074FFF22002F022
:105750007DFF802002F06EFF042002F06BFF4020EE
:1057600002F068FF282002F065FFC12002F06EFF02
:10577000172002F05FFF882002F05CFF882002F013
:1057800059FF202002F056FFE02002F05FFF0020CA
:1057900002F050FF0A2002F04DFF122002F04AFFF3
:1057A000102002F047FF0E2002F044FF202002F0FC
:1057B00041FFCC2002F03EFF072002F03BFF062015
:1057C00002F038FF0B2002F035FF0E2002F032FF0E
:1057D0000F2002F02FFF0D2002F02CFF152002F009
:1057E00029FF102002F026FF002002F023FFE12015
:1057F00002F02CFF002002F01DFF0B2002F01AFF28
:10580000132002F017FF0D2002F014FF0E2002F00B
:1058100011FF1B2002F00EFF712002F00BFF06208B
:1058200002F008FF062002F005FF0A2002F002FF46
:105830000F2002F0FFFE0E2002F0FCFE0F2002F00F
:10584000F9FE152002F0F6FE0C2002F0F3FE002017
:1058500002F0F0FE2A2002F0F9FE002002F0EAFE3B
:10586000002002F0E7FE012002F0E4FEDF2002F05B
:10587000E1FE2B2002F0EAFE002002F0DBFE002019
:1058800002F0D8FE032002F0D5FE1F2002F0D2FE67
:105890003A2002F0DBFE552002F0CCFE362002F06A
:1058A000D5FE002002F0C6FE112002F0CFFE7820C7
:1058B000FFF730FB292002F0C9FE1420FFF72AFB76
:1058C0002C2002F0C3FE10BD10B5ED2002F0BEFE8C
:1058D000012002F0AFFEFE2002F0ACFEEE2002F04E
:1058E000B5FEDE2002F0A6FE212002F0A3FEF1208C
:1058F00002F0ACFE012002F09DFEDF2002F0A6FEC9
:10590000102002F097FEC42002F0A0FE8F2002F0CB
:1059100091FEC62002F09AFE002002F08BFEE220EB
:1059200002F088FEE22002F085FEE22002F082FE14
:10593000BF2002F08BFEAA2002F07CFEB02002F015
:1059400085FE0D2002F076FE002002F073FE0D2091
:1059500002F070FE002002F06DFE112002F06AFEDF
:10596000002002F067FE192002F064FE002002F021
:1059700061FE212002F05EFE002002F05BFE2D2081
:1059800002F058FE002002F055FE3D2002F052FECB
:10599000002002F04FFE5D2002F04CFE002002F0DD
:1059A00049FE5D2002F046FE002002F043FEB120D9
:1059B00002F04CFE802002F03DFE002002F03AFE94
:1059C0008B2002F037FE002002F034FE962002F019
:1059D00031FE002002F02EFEB22002F037FE002041
:1059E00002F028FE002002F025FE022002F022FE36
:1059F000002002F01FFE032002F01CFE002002F037
:105A000019FEB32002F022FE002002F013FE002057
:105A100002F010FE002002F00DFE002002F00AFE4F
:105A2000002002F007FE002002F004FE002002F039
:105A300001FE002002F0FEFD002002F0FBFD002030
:105A400002F0F8FD002002F0F5FD002002F0F2FD6A
:105A5000002002F0EFFD002002F0ECFD002002F03B
:105A6000E9FD002002F0E6FD002002F0E3FD002049
:105A700002F0E0FD002002F0DDFD002002F0DAFD82
:105A8000002002F0D7FD002002F0D4FD002002F03B
:105A9000D1FD002002F0CEFDB42002F0D7FD8B2016
:105AA00002F0C8FD002002F0C5FD962002F0C2FD04
:105AB000002002F0BFFDA12002F0BCFD002002F09A
:105AC000B9FDB52002F0C2FD022002F0B3FD0020B6
:105AD00002F0B0FD032002F0ADFD002002F0AAFDAF
