:020000040800F2
:1000000010DB012095030008CD3F00085D3F00088C
:100010008D3F00081D1F0008614700080000000018
:10002000000000000000000000000000D5020008F1
:10003000CB2000080000000031030008AD4000089C
:10004000B9030008B9030008B9030008B9030008A0
:10005000B9030008B9030008B9030008B903000890
:10006000B9030008B9030008B9030008B903000880
:10007000B9030008B9030008B9030008B903000870
:10008000B9030008B9030008B9030008B903000860
:100090005D1F0008B9030008B9030008B903000890
:1000A000B9030008B9030008B9030008B903000840
:1000B000B9030008D5400008B9030008B9030008D7
:1000C000B9030008B9030008B9030008B903000820
:1000D000B9030008D1460008B9030008E14600084A
:1000E000B9030008B9030008B9030008B903000800
:1000F000B9030008B9030008B9030008B9030008F0
:10010000B9030008B9030008B9030008B9030008DF
:10011000B9030008B9030008B9030008B9030008CF
:10012000B9030008B9030008B9030008B9030008BF
:10013000B9030008B9030008B9030008B9030008AF
:10014000B9030008B9030008B9030008B90300089F
:10015000B9030008B9030008B9030008B90300088F
:10016000B9030008B9030008B9030008B90300087F
:10017000B9030008B9030008B90300080000000033
:10018000B9030008B903000800F002F800F092F883
:100190000AA090E8000C82448344AAF10107DA45E2
:1001A00001D100F087F8AFF2090EBAE80F0013F0A2
:1001B000010F18BFFB1A43F00103184750F8000065
:1001C00070F80000103A24BF78C878C1FAD85207F6
:1001D00024BF30C830C144BF04680C6070470000C1
:1001E0000023002400250026103A28BF78C1FBD840
:1001F000520728BF30C148BF0B6070476E2900F01E
:100200001284702900F05D8266290CF099836529BB
:100210000CF0968367290CF0938361290CF092838C
:1002200003681B0A28BF41F08001692900F0CE81D4
:10023000642900F0CB81752900F0C8816F2900F096
:100240001F87782900F02982E92900F0B986E4297E
:1002500000F0B686F52900F0B386EF2900F01C8780
:10026000F82900F028820368DB0928BF41F08001EB
:10027000632900F02886732900F02D86E32901F018
:100280007B81F32901F08081002070471FB50CF0BD
:1002900052FB00F05FFF0400002000210CF086F903
:1002A000401C6060002000210CF06AF9E0601FBD76
:1002B00010B510BD01F002FA1146FFF7E7FF08F094
:1002C00093FF01F029FA03B4FFF7F2FF03BC04F037
:1002D000BAFA00002C4B19680868B0E8F04F80F3B8
:1002E0000988BFF36F8F4FF0000080F311887047CB
:1002F0000000000008480068006880F308884FF09C
:10030000000080F3148862B661B6BFF34F8FBFF36D
:100310006F8F00DF00BF00BF08ED00E0DFF80C00CA
:10032000016841F470010160704700BF88ED00E092
:10033000EFF30980BFF36F8F134B1A681EF0100F95
:1003400008BF20ED108A20E9F04F106009B44FF08B
:10035000500080F31188BFF34F8FBFF36F8F0AF007
:10036000A1FE4FF0000080F3118809BC19680868ED
:10037000B0E8F04F1EF0100F08BFB0EC108A80F309
:100380000988BFF36F8F704768000020EFF3058086
:10039000704700000C48016841F4700101600B488F
:1003A00080470B480047FEE7FEE7FEE7FEE7FEE773
:1003B000FEE7FEE7FEE7FEE7FEE700000548064928
:1003C000044A064B7047000088ED00E0C140000879
:1003D0008901000810D7012010DB012010D701206F
:1003E000704753EA020C00F069802DE9F04B4FF0A2
:1003F0000006002B1FBFB3FA83F503FA05F424FAB5
:1004000005F65E4012BF1643B2FA82F502FA05F411
:10041000C5F120051EBF22FA05FC44EA0C04203574
:1004200056EA044C4FEA144418BF641C4FF000080D
:100430004FF00009904271EB030C39D3002919BF2A
:10044000B1FA81F701FA07F6B0FA80F700FA07F679
:10045000C7F120071EBF20FA07FC46EA0C0620372A
:10046000B6FBF4FCA7EB0507103F07F01F0BCBF121
:1004700020060CFA0BFB2CFA06F644BFB346002606
:10048000202FA4BF5E464FF0000B5BEA060C08BFAE
:100490004FF0010B19EB0B09ABFB027C48EB060894
:1004A000C01B06FB02CC0BFB03CC71EB0C01C1E7BC
:1004B0000B46024641464846BDE8F08B13B54FF067
:1004C00000004FF00001AFF30080BDE81C40704712
:1004D0000A46014900F004BD200000200FB4044981
:1004E00010B503AA029800F0FBFC10BC5DF814FBE9
:1004F000200000200FB47CB50C0009AA009001D0A8
:100500002044401E084B7B4469460190089800F047
:10051000B0FC05461CB10020694600F0BDFC284631
:100520007CBC5DF814FB00009909000070B504461E
:1005300085690068C10601D5302600E02026C00785
:1005400007D070BDD4E9012130469047206A401C95
:1005500020626D1EF6D570BD70B5044685690078C1
:10056000C00707D170BDD4E9012120209047206A3F
:10057000401C20626D1EF6D570BD70B50C46054658
:10058000012A05D02878800600D5EA69002302E018
:10059000012305E05B1C934202D2E05C0028F9D104
:1005A000A869E618C01AA861286A18442862284673
:1005B000FFF7BCFF04E0D5E9012114F8010B9047D7
:1005C000B442F8D32846FFF7C7FF70BD2DE9F041CC
:1005D0000646002410687529314616A510D000F093
:1005E000B7F9002802DA404213A507E031688A070C
:1005F00001D512A502E0490704D511A5012401E0A7
:1006000000F0AFF900210A2206F1240709E0B0FB4F
:10061000F2FCB0FBF2F302FB1C00303078541846B9
:10062000491C0028F3D123462A463046BDE8F04154
:1006300000F0A0B9000000002D0000002B00000019
:1006400020000000F0B40D460188090502D5214CB8
:100650007C4402E01F4C7C440E34002100F124064F
:1006600008E002F00F071209E75D42EA03721B0976
:100670007754491C52EA0307F3D10278002312078A
:1006800004D5702D06D009B1022311342246F0BCE6
:1006900000F070B901231034F8E770B504460D4638
:1006A0002146106800F05DF9024629462046BDE863
:1006B00070400023C6E7D21D22F00703D3E90023D0
:1006C000C0E70368126843F0200303600823C36196
:1006D0000023B7E7B8F200002DE9F05F8946044631
:1006E0004FF0000ADFF874B1FB44C0F820A02046A8
:1006F000E1688847002874D0252806D0D4E9012174
:100700009047206A401C2062F1E700265F462046A1
:10071000E16888472028054607DB312D05D2781986
:1007200010F8200C08B10643F1E7B00701D526F018
:100730000406C4F81CA00027C4F818A02A2D09D06C
:10074000284604F079F838B304EB8708303DC8F840
:10075000185019E059F8041B204604EB87029161F8
:10076000E1688847012F054618D1E069002820DAA2
:1007700026F020061DE0D8F8180000EB800005EBFD
:1007800040003038C8F818002046E1688847054620
:1007900004F052F80028EED1012F0AD02E2D08D1F6
:1007A0002046E16888477F1C0546022F46F0200658
:1007B000C4DBA069002803DA404246F00106A061CC
:1007C000F00701D026F010066C2D0BD0682D09D053
:1007D0004C2D39D06A2D35D0742D35D07A2D33D0AB
:1007E00016E038E0E1682F4620468847B8420546C3
:1007F00009D16C2F26D04FF48060E1680643204673
:100800008847054604E06C2F1AD04FF480700643E9
:100810000DB3A5F14100192802D8203546F4006631
:100820004A462946204626604E46FFF7E7FC80B13F
:1008300001280BD0F61D26F0070000F1080956E745
:100840004020E4E78020D8E70020D6E706F104093D
:100850004DE7284652E7206ABDE8F09F48F20000C5
:10086000032A40F2308010F0030C00F0158011F8DC
:10087000013BBCF1020F624498BF11F801CB00F8B4
:10088000013B38BF11F8013BA2F1040298BF00F808
:1008900001CB38BF00F8013B11F0030300F00684E0
:1008A000083AC0F0088051F8043B083A51F804CBEC
:1008B000A0E80810F5E7121D5CBF51F8043B40F8B2
:1008C000043BAFF30080D20724BF11F8013B11F8BD
:1008D00001CB48BF11F8012B24BF00F8013B00F801
:1008E00001CB48BF00F8012B704702F0FF0343EA39
:1008F000032242EA024200F00DBC4FF0000200B5B4
:10090000134694469646203922BFA0E80C50A0E832
:100910000C50B1F12001BFF4F7AF090728BFA0E8E0
:100920000C5048BF0CC05DF804EB890028BF40F8AC
:10093000042B08BF704748BF20F8022B11F0804FEE
:1009400018BF00F8012B7047704770477047704719
:1009500009684A0501D540B27047C905FCD500B207
:10096000704709684A0501D5C0B27047C905FCD572
:1009700080B270472DE9F0470D46994692460446ED
:1009800000F124080168880604D5E06921F010010F
:10099000216000E00120A84201DD471B00E00027A4
:1009A000A1697A1902EB0900081AA0612078C00633
:1009B00002D42046FFF7BAFD002608E0D4E9012161
:1009C0001AF806009047206A401C761C20624E45AB
:1009D000F4DB2078C0060AD52046FFF7A7FD06E025
:1009E000D4E9012130209047206A401C2062381E43
:1009F000A7F10107F4DC07E0D4E9012118F80500AC
:100A00009047206A401C2062281EA5F10105F3DCF6
:100A10002046FFF7A1FD2078000602D50220BDE8A0
:100A2000F0870120FBE711680268006A530501D5D1
:100A300008700AE0D30501D5088006E0130603D547
:100A4000C217C1E9000200E008600120704770474A
:100A50002DE9FF4F0C461E464FF0FF378BB0D2E911
:100A60000001DDF860800A908A46C1F30A5505B995
:100A70003D46002108464FF00000BAF1000F00F497
:100A8000400005DA00EB80004FF4400101EA50001D
:100A90004FEA9059B9F1010F00DDB9460A9850EAC2
:100AA0004A000ED044F61050A5F2FF3545432F14EE
:100AB000B8F1000F1ED07542291E1EDDC9F10002DB
:100AC0001CE0B8F1010F4FF0000001D0302103E02D
:100AD000F24305E02154401CB042FBDB30460022CB
:100AE000002121540B99C1F80880C1E900200FB002
:100AF000BDE8F08FBD1B6D1CDEE74A4600DA694297
:100B000006A800F045FD06AB93E8070003AB83E8B9
:100B1000070050460A9900F045FE8DE80700A0F551
:100B200000501F3800900398002D09DD42F21F018C
:100B30004A46084403A90390684601F0A4F808E077
:100B4000A0F500504A461F3803A90390684601F0FB
:100B5000AEF88DE807000004000C03D04FF0FF3022
:100B6000410800E01046B8F1000F03D000220092C7
:100B700015461EE0751E05D400F0F0FA30326255BD
:100B80006D1EF9D5B3460122084302D000227F1C16
:100B900004E02078302801D100227F1E002A099726
:100BA00086D01DE0112D07DA00F0D8FA30326255F8
:100BB0006D1C50EA0102F5D1084302D00098C8B17B
:100BC0000EE00021681E05E0235C625C6354225441
:100BD000401E491C8142F7DBAB46A81B401E099012
:100BE000002004F80B000B98099AC0F80880C0E9AF
:100BF000002B7CE711264FF0000859E72DE9F04F54
:100C000088460446D21D22F0070191B0D1E90001C7
:100C1000CDE90A0103F0DCFD02460B98C00F01D0BC
:100C20002D2007E02068810701D52B2002E020213C
:100C300001EAC000032A099001D0072A05DB034618
:100C40004146204600F04EFC0BE12078800601D59D
:100C5000E06900E00620B8F1650F814606D0B8F1E2
:100C6000660F18D0B8F1670F70D131E00020B9F1EC
:100C7000110F009001DB112301E009F101030AAA21
:100C800001A90CA8FFF7E4FEDDE90C70002609F1CC
:100C90000105834647E001204B4600904FF0004796
:100CA0000AAA01A90CA8FFF7D3FEDDE90DB00C9943
:100CB0005D46002610B909F101000D18B9EB0500D9
:100CC00003D4C0F1FF3609F10105A5EB09002BE0C3
:100CD000B9F1010F01DA4FF001090020B9F1110F4C
:100CE0000090484601DD112300E003460AAA01A94D
:100CF0000CA8FFF7ADFEDDE90C704D4600268346DB
:100D0000207800070AD4AB4500DA5D4601A8012D22
:100D100004DD411911F8011C302907D04F4502DAD2
:100D200017F1040F04DA012082460FE06D1EEEE792
:100D3000002F02DCED1B3E4403E0781CA84200DDDE
:100D40007D1CB81B00F1010A4FF000472078000716
:100D500003D4AA4501DB4FF0FF3A0021B7F1004F61
:100D60000DF143088DF8431024D002202B23002FCF
:100D700001DA7F422D230A21021EA0F1010000DCCE
:100D80005FB197FBF1FC97FBF1F201FB1C7C17466E
:100D90000CF1300C08F801CDEEE7A8F1010003706A
:100DA0002188090501D5452100E06521A0F1010850
:100DB00000F8011C09980FA9A1EB0807FF1D00B15D
:100DC0000120411901EBEA70A1693844081A401E5C
:100DD000A0612078C00602D42046FFF7A7FB09983F
:100DE00028B1D4E901219047206A401C2062207874
:100DF000C00622D52046FFF799FB1EE0002E04DB3B
:100E0000B34502DD01A8805D00E03020D4E9012176
:100E10009047206A401C2062761CAAF101005FEA1C
:100E2000000A0AD100F096F9C0680168405CD4E974
:100E300001219047206A401C2062281EA5F101056F
:100E4000DCDC07E0D4E9012118F8010B9047206AA7
:100E5000401C2062381EA7F10107F3DC2046FFF793
:100E60007BFB032011B043E601694A1C026108784C
:100E7000704700B58FB0CDE90131002105910549DA
:100E80007944CDE9031011466846FFF725FC0FB001
:100E900000BD0000E5FFFFFF0A6802F8010B0A60D1
:100EA0007047D1E900239A4202D2531C0B601070A4
:100EB000704710B5436913B1AFF3008001E0FFF74D
:100EC0005CFB012010BD127800F124010A700022A1
:100ED0004A700122EDE711684FF0FF32E9E70000A8
:100EE000074B70B50D467B44FFF7C3FF0446284609
:100EF00000F0BCFB10B14FF0FF3070BD204670BD5C
:100F0000DB4900002DE9FF5F15468A460446DFF8FD
:100F1000AC80F8440027D8E900103E46CDE9001027
:100F200010E03AF816106A4602A800F0A3FB411C34
:100F300007D02178890603D5E269391891420DD886
:100F40000744761C2078800602D5E069B84205DDAA
:100F5000AE42E6DB3AF816000028E2D1A069C01BD9
:100F6000A0612046FFF7E2FAD8E90010CDE90010B1
:100F7000002017E03AF818106A4602A800F07AFB41
:100F8000B0F1FF3F81460BD000250DF1080B05E0C5
:100F9000D4E901211BF8050090476D1C4D45F7D39E
:100FA00008F10100B0428046E4DB206A3844206248
:100FB0002046FFF7D1FABDE8FF9F000032EA0000AB
:100FC0002DE9F0418046D21D22F007020025D2E92A
:100FD0000002F52915A614D0011E72F1000106DAEF
:100FE0000023D0EB030063EB020211A608E0D8F85F
:100FF00000108B0701D50FA602E0490701D50EA608
:1010000001251146002408F1240704E000F0A6F8A9
:1010100030323A55641C50EA0102F7D12B46324671
:1010200021464046BDE8F041FFF7A4BC00000000A7
:101030002D0000002B0000002000000030B4002133
:1010400000F1240408E002F00705D208303542EA36
:101050004372DB086554491C52EA0305F3D1046866
:10106000002310A2250708D504F020040C4304D067
:10107000C46901230CA2641EC46130BCFFF77ABCB2
:1010800010B5044621461068FFF76BFC0246204667
:10109000BDE810400023D1E7D21D22F00701D1E9BD
:1010A0000023CBE7000000003000000010B5203A1C
:1010B000C0F00B80B1E81850203AA0E81850B1E811
:1010C0001850A0E81850BFF4F5AF5FEA027C24BFC7
:1010D000B1E81850A0E8185044BF18C918C0BDE8BE
:1010E00010405FEA827C24BF51F8043B40F8043B87
:1010F00008BF7047D20728BF31F8023B48BF11F83C
:10110000012B28BF20F8023B48BF00F8012B704795
:101110004FF000020429C0F0128010F0030C3FF4DD
:10112000EEABCCF1040CBCF1020F18BF00F8012BA0
:10113000A8BF20F8022BA1EB0C01FFF7E0BB5FEA90
:10114000C17C24BF00F8012B00F8012B48BF00F838
:10115000012B704700487047CCD6012030B5B0F164
:101160000A024FEA900E71F100034EEA817EB0EB65
:101170000E0061EB91014FEA101E4EEA017E10EB6A
:101180000E0041EB11114FEA102E4EEA016E10EBEA
:101190000E0041EB11214FEA104E4EEA014E10EBCA
:1011A0000E0041EB1141401841F100014FEAD0001F
:1011B00040EA41704FEAD10110EB80054FEA81040B
:1011C00044EA907444EB01046D1944EB0404521B8F
:1011D000A3414FF0000348BF0A3200D530BD401C88
:1011E00041F1000130BD00002DE9F04F04460D46ED
:1011F000D21D22F0070089B0D0E900924846174678
:10120000394603F0E5FA0246F80F01D02D2307E036
:101210002068810701D52B2302E0202101EAC003C9
:101220008DF820300BB1012000E00020032A824617
:1012300001D0072A04DB2946204600F053F93DE19E
:101240002078800601D40D2500E0E569C7F30A5631
:101250000D2D49DA00214FEA175B08464FF00000D8
:10126000002F00F4400007DA00EB80004FF440014B
:1012700000EBD07001EA60008115012901DD4FF01B
:10128000FF3100224FEA850CBCF1180F06D313463C
:10129000ACF118004FF08052C24003E04FF48013CD
:1012A00023FA0CF30CF10C0CBCF1200F04D3ACF1BD
:1012B000200C09FA0CF001E007FA0CF000294FF0BD
:1012C000004801DD18B90FE00ED140450CD319EBF1
:1012D00002095F4121B9404502D19F4329EA020931
:1012E000BBEB175F00D0761C2088000502D57B4839
:1012F000784402E079487844193808AA302302F883
:101300000A30037C0AF10101002E0AF1020A53544B
:101310006A4602DC4FF0300101E04FF031014FF03E
:1013200001088DF8001002D0A6F2FF3603E059EA5A
:10133000470100D06A4E002D02DC2178090704D550
:101340004FF002082E218DF80110C44600210BE059
:10135000C7F303433F01C35C491C6D1E02F808300C
:10136000052908F1010801DA002DF1DC00210CE06B
:1013700000EB1973491C1B786D1E082902F8083010
:101380004FEA091908F1010801DA002DF0DC217893
:10139000890602D514E0A8F10108E04505DD02EB5D
:1013A000080111F8011C3029F5D0B8F1000F07DD54
:1013B00002EB080111F8011C2E2901D1A8F1010846
:1013C000002D05DD3E2102F808106D1E08F1010810
:1013D000407C002E02F8080008F1010804DA2D20F4
:1013E000764202F8080002E02B2002F808000A21E9
:1013F0004FF47A70864208F101080BDB96FBF0F39C
:10140000303302F8083096FBF0F308F1010800FBD6
:10141000136601E0642E0CDB642096FBF0F330339E
:1014200002F8083096FBF0F308F1010800FB1366A0
:1014300001E00A2E06DB96FBF1F0303002F80800DE
:1014400008F1010896FBF1F001FB1060303002F862
:101450000800A16908F1010808EB050202EB0A0087
:10146000081AA0612078C00602D42046FFF75EF873
:10147000216A08AE01EB0A00206204E0D4E90121F0
:1014800016F8010B9047BAF1010AF7D22078C0068E
:1014900002D52046FFF74AF86E4609E016F8010B20
:1014A0003E280FD0D4E901219047206A401C2062D9
:1014B000B8F10108F2D22046FFF74EF809B0032038
:1014C000BDE8F08F206A2844206203E0D4E90121BE
:1014D000302090476D1EEBD3F8E700006FE6000068
:1014E00002FCFFFF2DE9F0411F4604460326016878
:1014F000072A01F4006004DB08B116A505E016A573
:1015000003E008B115A500E015A521F0100020604A
:10151000A069C01EA0610FB1401EA0612046FFF768
:1015200005F84FB1D4E9012138469047206A401CA4
:101530002062C01C206206E0206AFAE7D4E901219B
:1015400015F8010B9047761EF8D22046FFF704F8F5
:10155000BDE8F0814E414E006E616E00494E46007E
:10156000696E660010B5436913B1AFF3008001E006
:10157000FFF7C8FC012010BD128800F1240182840D
:101580000022C2840122EDE711684FF0FF32E9E743
:101590002DE9F047814616468AB0334878440DC895
:1015A0008DE80D0030487844801C03AC0DC884E8F9
:1015B0000D0041F69B300844372190FBF1F290FB7F
:1015C000F1F5A5F1800501FB12041B3C02D5644234
:1015D000012000E00020DFF890A080460027FA44B8
:1015E000AAF1BE0A0DE0E00709D03246684607EBD3
:1015F00047010AEB810100F05AFB8DE807006410F7
:101600007F1C002CEFD1184F7F44AC3F18E0E80757
:1016100014D007EB04100DF1180A90E80E008AE8C8
:101620000E00C068F04201D198190890324606A910
:1016300003A800F03CFB03AB83E807006D10641CBB
:10164000002DE4D132466946B8F1000F03A802D05C
:1016500000F019FB01E000F02AFBC9E90001C9F81C
:1016600008200AB0BDE8F08754E40000007B00F0D9
:101670008000704770B516460C46054600F044F8E9
:10168000036893F80101012806D0FF2C0FD8185DDC
:1016900068B101202C7070BDD3F807013246214695
:1016A00003F2071303442846BDE8704018474FF083
:1016B000FF3070BD00487047ACD601207546FFF77B
:1016C000F9FFAE4605006946534620F007008546FF
:1016D00018B020B5FEF772FEBDE820404FF00006BE
:1016E0004FF000074FF000084FF0000B21F007010A
:1016F000AC46ACE8C009ACE8C009ACE8C009ACE84D
:10170000C0098D467047000010B5FFF723FD001D8E
:1017100010BD00BF99AE00000446AFF30080204624
:10172000FEF7D1FD4FF0013C50F8042B51F8043B7B
:101730009A4221D1A2EB0C03934313EACC1317D1A5
:1017400050F8042B51F8043B9A4215D1A2EB0C033C
:10175000934313EACC130BD150F8042B51F8043BFC
:101760009A4209D1A2EB0C03934313EACC13DBD0CA
:101770004FF00000704700BFD01A01BAB1FA81F1F2
:1017800001F0180122FA01F0CB40C1F12001DBB2D7
:10179000C0B2C01A2CFA01F3D11A914311EAC31155
:1017A000E6D170475FEA400C08BF91F0000F4FEAA6
:1017B0008C234FEAC12243EA51514FEA1C5018BF13
:1017C00000F5F0404FEA300018BF41F000415FEAF9
:1017D0006C5C00F02980BCF1FF3F08BF40F0804006
:1017E0007047130C06BF12044FF0100C4FF0000CA2
:1017F000130E04BF12020CF1080C130F04BF1201E8
:101800000CF1040C930F04BF92000CF1020CD30FE7
:1018100004BF52000CF1010C11464FF00002A0F180
:101820001F00A0EB0C00704711F0004F08BF70477D
:1018300031F000413FF4D5AF0B0C06BF09044FF067
:10184000100C4FF0000C0B0E04BF09020CF1080C39
:101850000B0F04BF09010CF1040C8B0F04BF8900AE
:101860000CF1020CCB0F04BF49000CF1010CCCF1C0
:101870002003A0EB0C0022FA03F302FA0CF241EA77
:10188000030100F10100704720F07F4C80EA030063
:1018900023F07F47ACEB070303F57C5300F00040D7
:1018A00003F1FF032DE980494FEA154B09B44FEAD4
:1018B000144325EA0B4E24EA03480FF2042606EBF4
:1018C000132749083E785FEA320203FB0667C7F533
:1018D000000707FB06F64FEA54374FEAD64606F1F3
:1018E000020607FB066CCCF1005C4FEA1C472CEAB1
:1018F000074C07FB06F40CFB06F504EB15464FEA14
:10190000961634BF00204FF000404FEAD13706FB57
:1019100007FC4FEA1C4C0CFB0BF7D21B03FB0CF72C
:1019200061EB07010CFB0EF7B0EB074072EB1742BF
:101930000CFB08F734BFA2EB0742B2EB074261EBA6
:1019400017414FEA0C444FEA910706FB07FC4FEAA8
:101950001C4C0CFB0BF7B0EBC74072EB573203FB90
:101960000CF734BFA2EBC742B2EBC74261EB573171
:101970000CFB0EF7B0EBC70072EB57720CFB08F7CD
:1019800034BFA2EBC702B2EBC70261EB5771039FF2
:101990004FEA816141EA921104EBCC044FEAD1375E
:1019A0004FEA826206FB07FC42EA90124FEA80602F
:1019B0004FEA1C4C0CFB0BF7D21B03FB0CF761EB43
:1019C00007010CFB0EF7B0EB074072EB17420CFB64
:1019D00008F734BFA2EB0742B2EB074261EB1741B5
:1019E0004FEA8C554FEA910704EB9C2406FB07FC59
:1019F0004FEA1C4C0CFB0BF7B0EBC74072EB5732B5
:101A000003FB0CF734BFA2EBC742B2EBC74261EB5A
:101A100057310CFB0EF7B0EBC70072EB57720CFBA3
:101A200008F734BFA2EBC702B2EBC70261EB5771F4
:101A300015EB4C254FEA816141EA92114FEA82622F
:101A40004FEAD13742EA901206FB07FC44F100044A
:101A50004FEA80604FEA1C4C0CFB0BF7D21B03FBD8
:101A60000CF761EB07010CFB0EF7B0EB074072EBD4
:101A700017420CFB08F734BFA2EB0742B2EB074258
:101A800061EB174115EB1C154FEA813141EA924198
:101A90004FEA823242EA90424FEA80304FEA0C76B7
:101AA00044F1000448EA03434EEA0B484FF0000EAD
:101AB000B2EB080C71EB030724BF624639464EEBCC
:101AC0000E0E4FF0000B0018524149414BEB0B0B2F
:101AD000B2EB080C71EB03077BF1000B24BF6246ED
:101AE00039464EEB0E0E4FF0000B001852414941A3
:101AF0004BEB0B0BB2EB080C71EB03077BF1000B0C
:101B000024BF624639464EEB0E0E51EA020718BF5B
:101B100046F0010616EB0E7655F1000254F1000175
:101B200003D5BDE88901BDE80088BDE88901BDE8AD
:101B30000048B619524141EB0101A3F1010370477E
:101B400080807F7E7D7C7B7A7978777676757473FA
:101B5000727171706F6E6E6D6C6C6B6A6A696868B9
:101B6000676666656464636362616160605F5F5E4F
:101B70005E5D5D5C5C5B5B5A5A59595858575756C5
:101B8000565555555454535352525251515050502A
:101B90004F4F4F4E4E4D4D4D4C4C4C4B4B4B4A4A7C
:101BA0004A494949484848474747474646464545C0
:101BB00045444444444343434342424242414141F9
:101BC000002B26D4770021D01CB54FEA370703B489
:101BD0004FF010004FF010014FF000000FBCBDE8B7
:101BE00010400BF1010BBBF1010F08BF5FEA1707B3
:101BF00022BF12F1010211F101014FF0004143F146
:101C0000000300F0004043EA00007047F9D3570892
:101C1000DAE746EA064613F1400F4FEA16461FDDA3
:101C200013F1200FDFBF16430A46002120335B4229
:101C3000C8D0C3F1200746EA064602FA07F74FEA82
:101C4000164646EA0706C3F1200722FA03F201FA14
:101C500007F721FA03F14FF0000342EA0702B1E768
:101C600046EA020646EA06464FEA164646EA0106F4
:101C7000BCBF46EA0646360C4FF000034FF00002A8
:101C80004FF000019EE72DE9C048934630B491E83B
:101C9000380007C831EA400C48BF34EA430C03D58A
:101CA000FFF7F2FDFFF78CFFF0BCBDE800882DE9DF
:101CB000C048934630B491E8380007C810F0804F10
:101CC00008BF13F0804F03D100F005F8FFF778FF4D
:101CD000F0BCBDE8008820F07F4780EA030023F0D5
:101CE0007F4C07EB0C03A3F57C5300F00040A3F1FD
:101CF000FE0392F0000F00F0B38095F0000F00F0AB
:101D000077802DE901494FEA11404FEA144621EA54
:101D1000004800FB06FC24EA064708FB06F607FB22
:101D200008F800FB07F718EB06484CEB164C4FEA97
:101D3000124B18EB07484FEA15464CEB174022EAC6
:101D40000B4E0BFB06FC25EA06470EFB06F607FBCF
:101D50000EFE0BFB07F71EEB064E4CEB164C4FF03E
:101D600000061EEB074E4CEB174B18EB0B0840F12F
:101D7000000018EB0E0B58EB000840F100008F1A22
:101D80004FF000013CBFC943661B14BFB5EB040C08
:101D900000213CBFC943F61B4FEA17444EEA8E0EA2
:101DA00027EA04454FEA1C4704FB07622CEA074C6C
:101DB00005FB07F70CFB05F604FB0CFC16EB0746CE
:101DC00042EB174216EB0C4642EB1C421BEB06069D
:101DD00058EB0202414146EA9E0601D5BDE8018961
:101DE000B619524141EB0101A3F10103BDE801899C
:101DF0004FEA14454FEA114724EA054621EA074C09
:101E000005FB07F406FB07F70CFB06F105FB0CFCD2
:101E100011EB074144EB17444FEA124711EB0C4119
:101E200044EB1C4422EA074C05FB07F206FB07F7CC
:101E30000CFB06F605FB0CFC16EB074642EB1742C3
:101E400016EB0C4642EB1C456A1854F1000148BFE2
:101E50007047B619524141EB0101A3F101037047EC
:101E600095F0000F37D04FEA11424FEA144721EAAC
:101E7000024624EA074C02FB07F106FB07F70CFBBE
:101E800006F402FB0CFC14EB074441EB17414FEA4C
:101E9000154714EB0C4441EB1C4125EA074C02FBAF
:101EA00007F506FB07F70CFB06F602FB0CFC16EB2E
:101EB000074645EB174516EB0C4645EB1C4212193D
:101EC00051F1000148BF7047B619524141EB010181
:101ED000A3F1010370474FEA14454FEA114724EA82
:101EE000054621EA074C05FB07F106FB07F70CFB4B
:101EF00006F24FF0000605FB0CFC12EB074241EB2B
:101F0000174112EB0C4251EB1C4148BF704792182D
:101F100041EB0101A3F101037047000008B517E090
:101F200000BF4FF400710B4800F0F6FE00BF00BF89
:101F30004FF48061074800F0EFFE00BF00200090E2
:101F400002E00098401C0090034900988842F8D3B2
:101F5000E6E7000000140240A086010000B585B04D
:101F60000020009002AB124A0021124800F08AFAC9
:101F700080B90F48006801900D48007C8DF8100072
:101F80000D48006830B100236A4601A90A4800687C
:101F900009F000FC00BF009838B14FF080500749AD
:101FA0000860BFF34F8FBFF36F8F00BF05B000BD58
:101FB00068030020280300203C00002004ED00E01E
:101FC0000146087810381823B0FBF3F20848805C0B
:101FD000C865032A05D908686FF30900001D8865E4
:101FE00003E008686FF309008865886D704700009A
:101FF00060C90008014600208A6A8B69CBB932B1FA
:10200000012A0DD0022A03D0032A10D10EE000BF0E
:10201000CB6A03F08073B3F1807F00D1012007E029
:10202000CB6AB3F1C07F00D1012001E000E000BF26
:1020300034E08B69B3F5005F1AD132B1012A07D0C1
:10204000022A03D0032A11D10AE000BF01200EE0CA
:10205000CB6A03F08073B3F1807F00D1012006E0EA
:10206000CB6AB3F1C07F00D1012000E000BF15E0D2
:1020700032B1012A05D0022A04D0032A0CD103E090
:1020800000BF00BF012008E0CB6A03F08073B3F10A
:10209000807F00D1012000E000BF00BF704730B555
:1020A0000468246824F4802405682C600468636054
:1020B0008468402C04D10468A2600468E16003E0F5
:1020C0000468A1600468E26030BD704770B50446E2
:1020D0001D460023B5F5804F13D154F822300C482B
:1020E0000340D1E9000640EA06108E6840EA062067
:1020F0008E8940EA06408E693043034344F822301B
:1021000003E06FF0704044F82200002070BD000032
:102110000000F0CF10B503460022086853F82020D5
:1021200012480240D1E901042043CC6820430C69E5
:1021300020434C6920438C692043CC6920430C6ABE
:1021400020434C6A20438C6A2043CC6A2043CC6BEA
:1021500020430C6B204302438868082801D142F0D9
:102160004002086843F82020002010BD8000F0FFE6
:1021700030B503460024501C53F8204004F040447E
:10218000D1E9000540EA05108D6840EA05208D89F7
:1021900040EA0545088A401E45EA0055087D801E34
:1021A00045EA00608D6928430443501C43F82040F1
:1021B000002030BD10B5024692F82030012B01D02E
:1021C000022B1CD101F0010028B11068806840F09A
:1021D00080001468A06001F0020028B110688068D7
:1021E00040F400401468A06001F0040028B11068B9
:1021F000806840F400001468A060002010BD506AA0
:1022000040F4802050620120F8E7F0B504460D4606
:102210001E4694F8207020688368A86800B900E022
:1022200000BF012F01D0022F7CD103F0806030B9B4
:1022300003F0006018B903F08050002873D0C3F396
:102240000161022905D9606A40F400006062012042
:10225000F0BD012088403060A86860B9B5F800C0C2
:10226000E86840EA4C5C206800F5C07000EB0110A3
:10227000C0F800C00FE0D5E901C040EACC00D5F8B5
:102280000CC040EA0C00D4F800C00CF5C07C0CEB8C
:10229000011CCCF80000D5F810C0206800F5C07013
:1022A00000EB0110C0F804C0287D01280ED1206881
:1022B00000F5C07000EB0110406840F4807C20689D
:1022C00000F5C07000EB0110C0F804C0D079000622
:1022D00092F806C040EA0C4092F805C040EA0C2C87
:1022E00010794CEA000C206800F5C07000EB01107A
:1022F000C0F80CC0D078000692F802C040EA0C404A
:1023000092F801C040EA0C2092F800C040EA0C00AC
:10231000D4F800C00CF5C07C0CEB011CCCF8080014
:10232000206801E016E00FE000F5C07000EB01103E
:10233000006840F0010C206800F5C07000EB01104F
:10234000C0F800C0002083E7606A40F400106062BB
:1023500001207DE7606A40F480206062012077E719
:10236000F0B504460A46216894F82050012D01D0AA
:10237000022D7ED1424901F50071086840F001004C
:102380000860086820F47C5008600868566A40EAD3
:1023900006200860107D00F01F06012000FA06F3F9
:1023A000C8699843C861A1F50071D069C8B9D1F86E
:1023B0000C029843C1F80C02908880B2968940EADA
:1023C000064601F51070576940F83760108880B2F2
:1023D000168940EA064601F51070576900EBC70000
:1023E0004660D069012819D1D1F80C021843C1F810
:1023F0000C02908880B2168840EA064601F51070FB
:10240000576940F83760908980B2168940EA0646DD
:1024100001F51070576900EBC7004660906928B954
:10242000D1F804029843C1F8040204E0D1F8040290
:102430001843C1F80402106928B9D1F8140298436E
:10244000C1F8140204E0D1F814021843C1F81402D0
:10245000106A012804D1D1F81C021843C1F81C02EB
:10246000D1F8000220F00100C1F800020020F0BD08
:10247000FFE7606A40F4802060620120F7E7000017
:102480000064004070B5044694F82050012D01D03E
:10249000022D7DD151B92068C06800F0030080B9D9
:1024A000606A40F400106062012070BD206800691D
:1024B00000F0030028B9606A40F400106062012057
:1024C000F3E7206800F5D87000EB0110006800F019
:1024D00004009060906840B9206800F5D87000EB67
:1024E00001100068400D106007E0206800F5D8700A
:1024F00000EB01100068C0085060206800F5D8703B
:1025000000EB0110006800F00200D060206800F5C8
:10251000D87000EB0110406800F00F0010612068D7
:1025200000F5D87000EB0110406800F47F40000A0D
:102530009061206800F5D87000EB01104068000C35
:102540005061206800F5D87000EB011080681870A9
:10255000206800F5D87000EB0110806800F47F401F
:10256000000A5870206800F5D87000EB01108068F0
:1025700000F47F00000C9870206800F5D87000EB24
:1025800001108068000ED870206800F5D87000E057
:102590002FE000EB0110C0681871206800F5D870BA
:1025A00000EB0110C06800F47F40000A58712068F9
:1025B00000F5D87000EB0110C06800F47F00000C3B
:1025C0009871206800F5D87000EB0110C068000E0B
:1025D000D87131B92068C06840F020002668F060EA
:1025E00005E02068006940F0200026683061002086
:1025F0005BE7606A40F480206062012055E7014695
:10260000002091F82020012A01D0022A11D10B6864
:102610009B6803F0806303B1401C0B689B6803F068
:10262000006303B1401C0B689B6803F0805303B147
:10263000401C704770B504460CB9012070BD94F879
:10264000200010B9204600F0AFF82068006820F0A4
:1026500002002168086000F075FB05460DE000F0FF
:1026600071FB401B0A2808D9606A40F400306062A0
:10267000052084F820000120E0E72068406800F091
:1026800002000028EBD12068006840F001002168BA
:10269000086000F057FB05460DE000F053FB401BBF
:1026A0000A2808D9606A40F400306062052084F886
:1026B00020000120C2E72068406800F001000028E7
:1026C000EBD0207E012806D12068006840F0800011
:1026D0002168086005E02068006820F0800021681B
:1026E0000860607E012806D12068006840F0400044
:1026F0002168086005E02068006820F0400021683B
:102700000860A07E012806D12068006840F0200003
:102710002168086005E02068006820F0200021683A
:102720000860E07E012806D12068006820F01000D3
:102730002168086005E02068006840F0100021680A
:102740000860207F012806D12068006840F008005A
:102750002168086005E02068006820F00800216812
:102760000860607F012806D12068006840F00400FE
:102770002168086005E02068006820F004002168F6
:102780000860D4E9020108432169084361690843EC
:102790006168491E08432168C86100206062012009
:1027A00084F82000002049E710B586B00446284987
:1027B000206888424AD100BF00BF00200090254811
:1027C000006840F00100234908600846006800F0F6
:1027D0000100009000BF00BF00BF00BF00BF00208D
:1027E00000900846006840F0010008600846006854
:1027F00000F00100009000BF00BF00BF00BF00203C
:10280000009014481030006840F0007011491031F9
:1028100008600846006800F00070009000BF00BF2C
:10282000881401900220029001200390022004905D
:102830000920059001A9084800F06CF94FF40060E8
:10284000019001A9044800F065F900BF06B010BD71
:1028500000640040303802400000024070B5044679
:1028600094F82000012822D1022084F8200020685A
:10287000006820F001002168086000F063FA054656
:102880000DE000F05FFA401B0A2808D9606A40F4A6
:1028900000306062052084F82000012070BD2068AF
:1028A000406800F001000028EBD16062F6E7606A42
:1028B00040F4002060620120F0E770B50446A56D89
:1028C00000F040FA064694F83500022808D080202F
:1028D000606500BF002084F8340000BF012070BD97
:1028E0002068006820F016002168086020684069B0
:1028F00020F0800021684861206C08B9A06C28B1E4
:102900002068006820F008002168086020680068DE
:1029100020F00100216808600FE000F013FA801B2E
:1029200005280AD92020606500BF002084F8340003
:1029300000BF032084F83500D1E72068006800F06C
:1029400001000028E9D194F85C103F208840A8607D
:1029500000BF002084F8340000BF012084F8350057
:102960000020BCE7014691F83500022803D0802002
:10297000486501207047052081F835000868006827
:1029800020F001000A6810600020F3E70146486D5E
:10299000704700002DE9F0410446002500F0D2F90F
:1029A000074614B90120BDE8F081606A00B100BF9C
:1029B00000BF002084F8340000BF022084F83500F6
:1029C0002068006820F00100216808600AE000F03B
:1029D000B9F9C01B052805D920206065032084F8BB
:1029E0003500E0E72068006800F001000028EED123
:1029F0002068056821480540D4E901010843E168E1
:102A000008432169084361690843A1690843E169F2
:102A10000843216A08430543606A042803D1D4E9C6
:102A20000B0108430543206805602068456925F0CF
:102A30000705606A0543606A04280DD1A06A054352
:102A4000E06A48B12046FFF7D5FA28B1402060651A
:102A5000012084F83500A6E7206845612046FFF78D
:102A6000AFFA064694F85C103F208840B060002022
:102A70006065012084F83500002094E73F8010F065
:102A80002DE9F04704460D4616461F464FF0000854
:102A9000D4F8589000BF94F83400012802D10220E5
:102AA000BDE8F087012084F8340000BF94F83500B9
:102AB000012825D1022084F83500002060653B46BE
:102AC000324629462046FFF7EAFA94F85C103F2088
:102AD0008840C9F808002068006840F016002168A6
:102AE0000860206C28B12068006840F00800216868
:102AF00008602068006840F001002168086006E076
:102B000000BF002084F8340000BF4FF002084046A8
:102B1000C6E70000F8B502460B4600250024002059
:102B20000021DEE0012606FA01F51E6806EA05042A
:102B3000AC4275D11E7906F00306012E04D01E7931
:102B400006F00306022E13D190684F000326BE4004
:102B5000B0434F00DE68BE403043906050680126AD
:102B60008E40B0431E79C6F300168E40304350604D
:102B70001E7906F00306032E09D0D0684F00032605
:102B8000BE40B0434F009E68BE403043D0601E79C7
:102B900006F00306022E13D1CF0802F1200656F8E4
:102BA00027004E07F70E0F26BE40B0434F07FF0E1B
:102BB0001E69BE403043CF0802F1200646F82700C8
:102BC00010684F000326BE40B0431E7906F003068E
:102BD0004F00BE40304310605E6806F08056B6F18C
:102BE000805F7DD100BF00260096404E366846F4D7
:102BF00080463E4F3E603E46366806F4804600966C
:102C000000BF00BF3A4E8F0856F827008E07370FD7
:102C10000F26BE40B043374EB24202D1002624E018
:102C20005EE0354EB24201D101261EE0334EB24283
:102C300001D1022619E0324EB24201D1032614E03E
:102C4000304EB24201D104260FE02F4EB24201D1E4
:102C500005260AE02D4EB24201D1062605E02C4E93
:102C6000B24201D1072600E008268F073F0FBE4081
:102C700030431F4E8F0846F82700264E3068A04389
:102C80005E6806F48036B6F5803F00D12043214EC1
:102C90003060361D3068A0435E6806F40036B6F535
:102CA000003F00D120431B4E361D3060361D30687A
:102CB000A0435E6806F48016B6F5801F00D120435D
:102CC000144E08363060361D3068A0435E6806F446
:102CD0000016B6F5001F00D120430E4E0C363060B2
:102CE000491C1029FFF41EAFF8BD00004438024013
:102CF0000838014000000240000402400008024081
:102D0000000C024000100240001402400018024073
:102D1000001C0240003C014010B5426921EA020358
:102D200002EA010443EA0443836110BD0AB18161F0
:102D300001E00B048361704701480068000C704794
:102D4000002004E0014800687047000028000020CF
:102D5000034800680349097808440149086070473E
:102D6000280000203000002010B50A48006840F418
:102D70000070084908600846006840F480600860F8
:102D8000032000F07FF80F2000F006F800F02AF88A
:102D9000002010BD003C024070B504460E4800788B
:102DA0004FF47A71B1FBF0F00C490968B1FBF0F512
:102DB000284600F09BFC08B1012070BD102C07D202
:102DC00000222146501E00F01EF80548046001E074
:102DD0000120F2E70020F0E7300000200000002092
:102DE0002C000020704701460846002809DB00F04F
:102DF0001F0301229A4043099B0003F1E023C3F81B
:102E0000002100BF70472DE9F05F80460D46164651
:102E1000002701F0F5FC074639462A46334601F003
:102E20000700C0F1070ABAF1040F02D94FF0040AF3
:102E300001E0C0F1070AD14600F1040ABAF1070F18
:102E400002D24FF0000A01E0A0F1030AD4464FF08D
:102E5000010A0AFA09FAAAF1010A0AEA020A0AFAB6
:102E60000CFA4FF0010B0BFA0CFBABF1010B0BEA68
:102E7000030B4AEA0B042146404601F0C9FCBDE8B9
:102E8000F09F000000BF00F00702064B19684FF6E4
:102E9000FF031940044B0B4343EA0221014B196025
:102EA00000BF70470CED00E00000FA0570B5044665
:102EB0000D460CB9012070BD5848006800F00700AD
:102EC000A84209D255490D700846006800F0070075
:102ED000A84201D00120EEE7207800F0020002288D
:102EE0001DD1207800F00400042805D14C4800686A
:102EF00040F4E0504A490860207800F008000828B3
:102F000005D14748006840F460404549086044489E
:102F1000006820F0F000A16808434149086020786B
:102F200000F00100A8B36068012807D13C480838C8
:102F30000068C0F34040B8B90120BCE760680228CF
:102F400002D06068032807D1354808380068C0F30C
:102F5000406048B90120AEE7314808380068C0F346
:102F6000400008B90120A6E72D48006820F00300C2
:102F7000616808432A490860FFF7E4FE064609E055
:102F8000FFF7E0FE801B41F28831884202D903201E
:102F900091E707E02248006800F00C006168B0EBA0
:102FA000810FEDD11D48006800F00700A84209D943
:102FB0001A490D700846006800F00700A84201D0C9
:102FC000012078E7207800F00400042807D1144895
:102FD000006820F4E050E168084311490860207857
:102FE00000F00800082808D10D48006820F460406F
:102FF000216940EAC1000A49086000F03FF8084929
:103000000968C1F30311074A515CC84006490860CA
:1030100006480068FFF7C0FE00204CE7003C024075
:103020000838024048C90008000000202C00002099
:1030300001480068704700000000002000B5FFF75D
:10304000F7FF04490968C1F38221034A515CC84073
:1030500000BD00000838024058C9000800B5FFF75D
:10306000E7FF04490968C1F34231034A515CC84093
:1030700000BD00000838024058C900082DE9F0479B
:10308000002400250026A1462548006800F00C0019
:1030900020B1042805D008283AD105E0DFF8849053
:1030A00039E0DFF8849036E01D48001F006800F02A
:1030B0003F041B48001F006800F4800078B11A48E4
:1030C0001749091F0968C1F38811A0FB0170014667
:1030D000224600233846FDF784F905460EE01148E4
:1030E0000F49091F0968C1F38811A0FB017001464F
:1030F000224600233846FDF774F905460848001FAC
:103100000068C0F30140401C4600B5FBF6F902E040
:10311000DFF8109000BF00BF4846BDE8F087000010
:10312000083802400024F40000127A00F8B5044682
:103130000CB90120F8BD207800F00100002874D0FF
:10314000F948006800F00C0004280DD0F64800682B
:1031500000F00C00082813D1F348001F006800F4A9
:103160008000B0F5800F0BD1EF4808380068C0F33D
:103170004040002859D06068002856D10120D9E786
:1031800000BF6068B0F5803F08D1E74808380068A4
:1031900040F48030E449083908601EE06068B0F50A
:1031A000A02F0DD1E0480838006840F48020DE49A7
:1031B000083908600846006840F4803008600CE078
:1031C000D9480838006820F48030D74908390860A9
:1031D0000846006820F48020086000BF606890B155
:1031E000FFF7B0FD054606E0FFF7ACFD401B642885
:1031F00001D903209EE7CC4808380068C0F340405E
:103200000028F1D011E0FFF79DFD054606E0FFF72D
:1032100099FD401B642801D903208BE7C248083878
:103220000068C0F340400028F1D1207800F002008F
:1032300002285FD1BC48006800F00C0058B1BA48C1
:10324000006800F00C0008281CD1B748001F006877
:1032500000F48000B0B9B44808380068C0F34000FA
:1032600020B1E068012801D0012063E7AE480838AA
:10327000006820F0F800216940EAC100AA49083935
:10328000086037E0E06800B30120A8490860FFF754
:1032900059FD054606E0FFF755FD401B022801D900
:1032A000032047E7A04808380068C0F34000002822
:1032B000F1D09D480838006820F0F800216940EA04
:1032C000C10099490839086014E000209749086056
:1032D000FFF738FD054606E0FFF734FD401B0228E6
:1032E00001D9032026E7904808380068C0F3400061
:1032F0000028F1D1207800F0080008282CD160695E
:10330000A8B101208A490860FFF71CFD054606E0C8
:10331000FFF718FD401B022801D903200AE7824865
:103320006C300068C0F340000028F1D014E00020A9
:103330007F490860FFF706FD054606E0FFF702FD3E
:10334000401B022801D90320F4E677486C3000685E
:10335000C0F340000028F1D1207800F004000428D8
:1033600070D1002770483830006800F0805090B964
:1033700000BF002000906C483830006840F080505A
:103380006949383108600846006800F080500090B4
:1033900000BF00BF01276748006800F48070B0B923
:1033A0006448006840F4807062490860FFF7CAFC16
:1033B000054606E0FFF7C6FC401B022801D90320A2
:1033C000B8E65C48006800F480700028F2D000BFC6
:1033D000A068012808D154486830006840F0010016
:1033E0005149683108601DE0A06805280DD14E489C
:1033F0006830006840F004004B49683108600846B6
:10340000006840F0010008600CE047486830006840
:1034100020F001004449683108600846006820F047
:103420000400086000BFA068A8B1FFF78BFC054648
:1034300009E0FFF787FC401B41F28831884202D93E
:10344000032077E626E0384868300068C0F3400083
:103450000028EED013E0FFF775FC054608E0FFF703
:1034600071FC401B41F28831884201D9032061E69A
:103470002D4868300068C0F340000028EFD1012FCC
:1034800007D129483830006820F08050264938316B
:10349000086000BFA069002845D02348006800F0FC
:1034A0000C0008285DD0A069022845D100201F49E2
:1034B0000866FFF747FC054606E0FFF743FC401BA4
:1034C000022801D9032035E6174808380068C0F300
:1034D00040600028F1D1D4E907010843616A40EA5D
:1034E00081110122A06AC2EB500041EA00412C2068
:1034F000005D41EA00600C49091F086001200B498A
:103500000866FFF71FFC054606E0FFF71BFC401BA3
:10351000022801D903200DE6034808380068C0F3EB
:1035200040600028F1D049E00838024000004742DE
:10353000800E474200700040002021490866FFF7D6
:1035400001FC054606E0FFF7FDFB401B022801D900
:103550000320EFE51B480068C0F340600028F2D16B
:103560002CE0A069012800D1E4E51648001D06689A
:10357000A069012820D006F48001E06981421BD1B6
:1035800006F03F01206A814216D147F6C0703040F4
:10359000616AB0EB811F0FD106F440310122A06AAD
:1035A000C2EB5000B1EB004F06D106F070612C2049
:1035B000005DB1EB006F01D00120BBE50020B9E553
:1035C000000047420038024070B504460E461546DA
:1035D0000CB9012070BD94F8490028B9002084F886
:1035E0004800204600F01CF804F108012068FEF7AE
:1035F00091FD3146A2682068FEF7BAFD2946236B8B
:10360000D4E90102FEF762FDA168206850F82100AC
:1036100040F00100A268216841F822000020D9E7AB
:1036200010B586B0044600BF002000902248006814
:1036300040F00100204908600846006800F00100E1
:10364000009000BF00BF00BF002000901A4808385B
:10365000006840F00800184908390860084600680A
:1036600000F00800009000BF00BF00BF00200090E5
:103670000846006840F0100008600846006800F046
:103680001000009000BF00BF4CF2037001900220B8
:10369000029001200390022004900C20059001A9C3
:1036A0000648FFF737FA4FF68070019001A90448E9
:1036B000FFF730FA06B010BD38380240000C024067
:1036C00000100240042808D14FF0E021096941F0C0
:1036D00004014FF0E022116107E04FF0E021096999
:1036E00021F004014FF0E0221161704770B50446EB
:1036F0002546681EB0F1807F01D301200FE0681ECF
:103700004FF0E02148610F214FF0FF3001F080F8C9
:1037100000204FF0E021886107200861002070BD83
:1037200070477047704710B5044620680069C0F3C1
:103730004000D8B12068C068C0F34000B0B16FF05D
:10374000020021680861012020772068806900F06C
:10375000030018B12046FFF7E5FF05E0204600F022
:10376000ADF8204600F0ABF8002020772068006913
:10377000C0F38000D8B12068C068C0F38000B0B149
:103780006FF00400216808610220207720688069BA
:1037900000F4407018B12046FFF7C4FF05E0204652
:1037A00000F08CF8204600F08AF80020207720688E
:1037B0000069C0F3C000D8B12068C068C0F3C00081
:1037C000B0B16FF0080021680861042020772068FC
:1037D000C06900F0030018B12046FFF7A3FF05E021
:1037E000204600F06BF8204600F069F800202077B2
:1037F00020680069C0F30010D8B12068C068C0F329
:103800000010B0B16FF01000216808610820207727
:103810002068C06900F4407018B12046FFF782FFAD
:1038200005E0204600F04AF8204600F048F8002065
:1038300020772068006900F0010058B12068C06856
:1038400000F0010030B16FF00100216808612046EE
:1038500000F036F820680069C0F3C01058B1206845
:10386000C068C0F3C01030B16FF0800021680861FB
:103870002046FFF755FF20680069C0F3801058B15B
:103880002068C068C0F3801030B16FF0400021683C
:103890000861204600F026F820680069C0F3401057
:1038A00058B12068C068C0F3401030B16FF02000FC
:1038B000216808612046FFF734FF10BD704770474C
:1038C00010B504460548844206D100BF4FF480611C
:1038D0000348FFF721FA00BF10BD0000B00200202E
:1038E000001402407047704710B504462068C06855
:1038F00020F490702168C8602068406920F00100C1
:1039000021684861206B012805D12068C06820F03B
:1039100010002168C8602068406900F0400040281D
:1039200017D12068406920F0400021684861A06BF1
:1039300078B10020A16B0865A06BFEF7BEFF40B117
:10394000A06BFFF723F8202803D110202064032068
:1039500010BD0020E085202084F83E000020206378
:1039600000BFF5E738B504461749206888422AD1D8
:1039700016480068401C1549086000BF00200090F0
:1039800020680068009020684068009000BF00BF79
:1039900000BF002000902068006800902068406808
:1039A000009000BF00BF00BF0020009020680068AA
:1039B000009020684068009000BF00BF6422044966
:1039C000204600F0CFF938BD0048004040000020FC
:1039D000600400202DE9F84F04462068056820683F
:1039E000C668206847694FF00009CA4605F00F090C
:1039F000B9F1000F0AD105F0200038B106F020001F
:103A000020B1204600F019FCBDE8F88FB9F1000F95
:103A100072D007F0010018B906F4907000286BD03E
:103A200005F0010030B106F4807018B1206C40F050
:103A30000100206405F0040030B107F0010018B166
:103A4000206C40F00200206405F0020030B107F065
:103A5000010018B1206C40F00400206405F008005B
:103A600048B106F0200010B907F0010018B1206C31
:103A700040F008002064206C70B305F0200028B1ED
:103A800006F0200010B1204600F0D7FB2068406906
:103A9000C0F3801A206C00F0080010B9BAF1000FD2
:103AA00023D0204600F094FB2068406900F04000DD
:103AB000402816D12068406920F040002168486104
:103AC000A06B50B15648A16B0865A06BFEF74AFF8A
:103AD00010B1A06B016D88470CE02046FFF742FF54
:103AE00008E02046FFF73EFF04E02046FFF73AFFDC
:103AF0000020206488E7FFE7206B012879D105F0DA
:103B00001000002875D006F01000002871D000BF0A
:103B100000200090206800680090206840680090B5
:103B200000BF00BF2068406900F04000402839D144
:103B3000A06B006840681FFA80F8B8F1000F30D021
:103B4000A08D40452DDDA4F82E80A06BC069B0F596
:103B5000807F1FD02068C06820F480702168C86012
:103B60002068406920F001002168486120684069B0
:103B700020F0400021684861202084F83E000020A9
:103B800020632068C06820F010002168C860A06B26
:103B9000FEF793FEA08DE28D801A81B22046FFF7DA
:103BA000A2FE31E7A08DE18D401A1FFA80F8E08D6A
:103BB000E8B1B8F1000F1AD02068C06820F4907006
:103BC0002168C8602068406920F0010021684861D0
:103BD000202084F83E00002020632068C06820F088
:103BE00010002168C86041462046FFF77CFE0BE7C5
:103BF000FFE705F0800030B106F0800018B12046E4
:103C000000F0FFFC00E705F0400030B106F0400096
:103C100018B1204600F0F7FAF6E600BFF4E600001F
:103C2000E540000810B504460CB9012010BDA0699C
:103C300000B100E000BF94F83D0028B9002084F8EE
:103C40003C00204600F028F8242084F83D0020683D
:103C5000C06820F400502168C860204600F04CFB8A
:103C60002068006920F4904021680861206840695C
:103C700020F02A00216848612068C06840F40050A4
:103C80002168C86000202064202084F83D0084F86A
:103C90003E000020CAE7000010B586B004462E4959
:103CA0002068884255D100BF00BF002000902B48FB
:103CB000006840F01000294908600846006800F0DC
:103CC0001000009000BF00BF00BF00BF00BF002079
:103CD000009022481438006840F001001F49143950
:103CE00008600846006800F00100009000BF00BFB7
:103CF00000BF00BF00BF002000900846006840F0F1
:103D0000010008600846006800F00100009000BF54
:103D100000BF00BF481501900220029001200390CF
:103D2000022004900720059001A90D48FEF7F2FE3D
:103D30004FF4806001900720059001A90848FEF724
:103D4000E9FE2520FFF74FF8032211462520FFF753
:103D50005AF806B010BD000000100140443802407F
:103D60000000024070B504460D46164694F83E0029
:103D7000202816D105B10EB9012070BD00BF94F8FE
:103D80003C00012801D10220F7E7012084F83C0023
:103D900000BF0020206332462946204600F0C2FBC7
:103DA000EBE70220E9E770B504460D46164694F8A5
:103DB0003E00202816D105B10EB9012070BD00BF0C
:103DC00094F83C00012801D10220F7E7012084F893
:103DD0003C0000BF0020206332462946204600F008
:103DE000EDFBEBE70220E9E710B504462049206827
:103DF00088423BD11F48008800F4004088BB1D4822
:103E0000008800F4804070B11B4800780A2803D075
:103E100000201849088024E01648008840F400403B
:103E2000144908801DE0144800780D2806D1114877
:103E3000008840F480400F49088012E00E48007866
:103E40000C490988C1F30D010C4A505409480088F7
:103E5000401C0849088008460088C72801DD00206A
:103E60000880012204490648FFF79DFF10BD0000AD
:103E7000001001402400002026000020F400002053
:103E8000BC01002070472DE9F84F04460E46174646
:103E900099464FF0000A94F83D0020285AD106B107
:103EA00017B90120BDE8F88F00BF94F83C00012845
:103EB00001D10220F6E7012084F83C0000BF002079
:103EC0002064212084F83D00FEF73CFF8246A78451
:103ED000E784A068B0F5805F04D1206910B900259F
:103EE000B04602E035464FF0000800BF002084F8DD
:103EF0003C0000BF1BE05346002280212046CDF845
:103F0000009000F0AEFB08B10320CBE745B9B8F84C
:103F10000000C0F308002168486008F1020803E0CF
:103F20002878216848606D1CE08C401EE084E08C9D
:103F30000028E0D15346002240212046CDF80090D1
:103F400000F08FFB08B10320ACE7202084F83D008F
:103F50000020A7E70220A5E77047000008B510E0A1
:103F600000BF4FF480610748FEF7D6FE00BF002077
:103F7000009002E00098401C00900349009888429D
:103F8000F8D3EDE700140240400D030008B517E038
:103F900000BF4FF400710B48FEF7BEFE00BF00BF2C
:103FA0004FF480610748FEF7B7FE00BF0020009085
:103FB00002E00098401C0090034900988842F8D322
:103FC000E6E7000000140240A086010070472DE9DA
:103FD000F0470C46DDE90867002100258C4600BF4C
:103FE00060E04FF0010808FA01F504EA050CAC4561
:103FF00057D1D0F800804FEA410A4FF0030909FA7F
:104000000AF928EA0908C0F80080D0F800804FEAD1
:10401000410902FA09F948EA0908C0F80080012AB2
:1040200001D0022A27D1D0F808804FEA410A4FF088
:10403000030909FA0AF928EA0908C0F80880D0F843
:1040400008804FEA410906FA09F948EA0908C0F868
:104050000880D0F804904FF0010808FA01F829EA26
:104060000809C0F80490D0F8048003FA01F948EA7E
:104070000908C0F80480D0F80C804FEA410A4FF0DC
:10408000030909FA0AF928EA0908C0F80C80D0F8EF
:104090000C804FEA410907FA09F948EA0908C0F813
:1040A0000C80491C10299CD3BDE8F08710B5FEF7A1
:1040B0004FFE07F0B3FE012801D007F061F910BDF3
:1040C0000348006840F47000014908607047000030
:1040D00088ED00E010B50248FFF725FB10BD000099
:1040E000B002002070B50546AC6B0020E085E0848E
:1040F0002046FFF737FC70BD70B506460025B46B4F
:1041000020684069C0F3C01594F83D00212805D10E
:1041100025B10020E084204600F085F82068406941
:10412000C0F3801594F83E00222805D125B1002067
:10413000E085204600F04CF8206C40F01000206430
:104140002046FFF70FFC70BD70B50546AC6B2868C4
:10415000006800F48070F8B90020E0852068C0682D
:1041600020F480702168C8602068406920F0010058
:10417000216848612068406920F04000216848615A
:10418000202084F83E00206B012805D12068C068FB
:1041900020F010002168C860206B012804D1A18D97
:1041A0002046FFF7A0FB02E02046FFF71DFE70BD92
:1041B00070B50546AC6B206B012805D1A08D410878
:1041C0002046FFF790FB02E02046FFF75BFE70BD44
:1041D0000168C96821F490710268D1600168496979
:1041E00021F0010102685161016B012905D10168CB
:1041F000C96821F010010268D160202180F83E10CA
:1042000000210163704710B504462068C06820F0A3
:1042100040002168C860202084F83D002046FFF758
:104220009BFE002010BD0168C96821F0C001026832
:10423000D160202180F83D10704770B5044694F895
:104240003E00222856D1A068B0F5805F0CD12069CD
:1042500050B90025A66A20684068C0F30800308085
:10426000A06A801CA06215E0A56A0026A068B0F5CF
:10427000805F03D0A06828B9206918B92068406819
:10428000287004E02068406800F07F002870A06A71
:10429000401CA062E08D401E80B2E08540BB2068DB
:1042A000C06820F020002168C8602068C06820F441
:1042B00080702168C8602068406920F00100216892
:1042C0004861202084F83E00206B01280AD1206834
:1042D000C06820F010002168C860A18D2046FFF75B
:1042E00002FB02E02046FFF77FFD0020206370BD47
:1042F0000020FCE70220FAE72DE9F84F0446206889
:10430000006920F44050E168084321680861216990
:10431000A068084361690843E16908430090206888
:10432000C06849F20C618843009908432168C8605D
:104330002068406920F44070A16908432168486101
:1043400076492068884203D075492068884203D1A5
:10435000FEF784FE814602E0FEF770FE8146E069CA
:10436000B0F5004F6CD102206168A0FB01500346FC
:104370001920A9FB007001462A463846FCF731F89F
:104380006421B0FBF1F04FEA001A02206168A0FB43
:1043900001510B461920A9FB00712A463846FCF74B
:1043A00020F8834602206168A0FB015003461920D3
:1043B000A9FB00712A463846FCF713F86421B0FBCC
:1043C000F1F000EBC00101EB0010ABEB80003221FB
:1043D00001EBC0006421B0FBF1F000F0F8000AEB43
:1043E000400A02206168A0FB015003461920A9FB86
:1043F000007001462A463846FBF7F3FF8346022049
:104400006168A0FB015003461920A9FB00712A46F0
:104410003846FBF7E6FF6421B0FBF1F000EBC0018A
:1044200001EB0010ABEB8000322101EBC0006421F6
:10443000B0FBF1F000F007005044216888606AE0AA
:1044400004206168A0FB015003461920A9FB0070FD
:1044500001462A463846FBF7C4FF824604206168BD
:10446000A0FB015003461920A9FB007001462A4613
:104470003846FBF7B6FF6421B0FBF1F000EBC0015A
:1044800001EB0010AAEB8000322101EB0010642147
:10449000B0FBF1F000F0F00A04206168A0FB0170AD
:1044A00003461920A9FB00513A462846FBF799FF1D
:1044B0006421B0FBF1F00AEB001A04206168A0FB54
:1044C00001510B461920A9FB00712A463846FBF71B
:1044D00088FF834604206168A0FB01500346192031
:1044E000A9FB007001462A463846FBF77AFF642193
:1044F000B0FBF1F000EBC00101EB0010ABEB800072
:10450000322101EB00106421B0FBF1F000F00F004C
:10451000504421688860BDE8F88F00000010014019
:104520000014014077B581B0044615460298A06298
:10453000A58500202064222084F83E001C48A16B41
:10454000C8631C48A16B08641B48A16BC8640020A9
:10455000A16B086502AE32682368191D2B46A06B5B
:10456000FEF78EFA00BF00200090206800680090DF
:1045700020684068009000BF00BF00BF002084F8A2
:104580003C0000BF2068C06840F480702168C860AB
:104590002068406940F00100216848612068406956
:1045A00040F0400021684861002004B070BD000068
:1045B00049410008B1410008F940000810B5034620
:1045C00099629A85DA8500201864222083F83E00DB
:1045D00000BF002083F83C0000BF1868C06840F4AA
:1045E00080701C68E0601868406940F001001C6839
:1045F00060611868C06840F020001C68E06000201E
:1046000010BD014691F83D00212828D18868B0F5F9
:10461000805F0BD1086948B90A6A1088C0F30800A6
:104620000B685860086A801C086205E00B6A581C19
:10463000086218780B685860C88C401E80B2C88425
:1046400058B90868C06820F080000B68D860086816
:10465000C06840F040000B68D8600020704702201E
:10466000FCE72DE9F04104460D4617469846069EA4
:1046700021E0701CF8B12EB1FEF764FBA0EB08003E
:10468000B04218D92068C06820F4D0702168C86092
:104690002068406920F0010021684861202084F8EA
:1046A0003D0084F83E0000BF002084F83C0000BFBD
:1046B0000320BDE8F081206800682840A84201D1AD
:1046C000012000E00020B842D3D00020F1E7000034
:1046D00010B50248FFF77EF910BD0000BC010020B4
:1046E00038B51D4800680068C0F3001018B30024F6
:1046F00000BF00200090184800680068009016482D
:1047000000684068009000BF00BF1348806B0068DD
:104710004068C0F1640084B2002C03DD21460F48DC
:1047200001F0E2F80C48FFF7DFF864220B490A4871
:10473000FFF718FB00BF00BF00200090064800688C
:1047400000680090044800684068009000BF00BF07
:104750000148FFF73FF938BDA003002060040020A6
:1047600008B517E000BF4FF400710B48FEF7D4FA0C
:1047700000BF00BF4FF480610748FEF7CDFA00BFCD
:104780000020009002E00098401C0090034900982F
:104790008842F8D3E6E7000000140240A08601003A
:1047A00070B50621302005F0D1FE302005F0DEFD89
:1047B0000546062D03D00621302005F0C7FE002453
:1047C00003E007F0D5FE601C84B2C82CF9DB70BD95
:1047D00003B401984100009850EAC12018BF04209A
:1047E0004A0D18BF40F0010040F2FF72B2EB515F7A
:1047F00008BF40F00200012808BF052002B0704742
:1048000002480068C0F30220704700000CED00E091
:1048100010B5002804DB0A07130E054A135406E0FE
:104820000A07140E034A00F00F031B1FD45410BDD7
:1048300000E400E018ED00E030380A2801D2012041
:1048400070470020704700BF7047000000F0010172
:10485000194A1160C0F34001184AC2F88412C0F32B
:104860008001154A08321160C0F30011121F116057
:10487000C0F34011104A3C321160C0F38011104A5D
:104880001160C0F3C0110C4A38321160C0F300212E
:104890000B4A121D1160C0F34021074A34321160E7
:1048A000C0F38021044A14321160C0F3C021024ACF
:1048B0000C32116070470000808242420000434287
:1048C000900243422DE9F0418AB004460D46164657
:1048D0001F46DDF8408024482449086008464760A8
:1048E000C0F80880C4600661456100210176417608
:1048F00081760121C176002101774177FDF79AFE8B
:1049000018B101200AB0BDE8F0811848006840697C
:1049100040F002001549096848611420FEF763FA67
:10492000002206211420FEF76EFA00200590069062
:1049300001200790002000900190029003900490C5
:10494000012008900E20099069460848FDF708FDEF
:1049500008B10220D6E70548FDF780FF08B1032023
:10496000D0E70020CEE700000064004028030020CC
:10497000F8B504460D461646002701200090114860
:104980000460446000200F498860C86008460661E2
:104990006B462A460C48FDF738FC08B10120F8BDEB
:1049A00009E07F1CB7F5002F05D307480099FDF7F4
:1049B00001FC0120F3E70448FDF721FE0328F0D1B4
:1049C0000020ECE750030020280300200149086084
:1049D000704700003C0000202DED048B86B09FED59
:1049E000820AB0EE408A9FED800AF0EE408A9FED89
:1049F0007E0AB0EE409A7DA005F044FB4FF47A7039
:104A000006F002F983A005F03DFBEBE000F0A2F90F
:104A100020B100F09BF94078022843D09FED720A44
:104A2000B0EE408A9FED700AF0EE408A9FED6E0A6C
:104A3000B0EE409A00F08EF968B94FF4784085A145
:104A400010221346CDE900210290F02282210A2093
:104A500004F0DCFA0CE04FF61F0084A1102213468C
:104A6000CDE900210290F02282210A2004F0CEFA42
:104A70004FF4784083A110221346CDE90021029023
:104A8000F02296210A2004F0C1FA012000F028FC4F
:104A9000054615B9022000F047FC4FF4FA7006F005
:104AA000B3F89FE04FF4FC607CA110221346CDE9DF
:104AB00000210290F02282210A2004F0A7FA1F2090
:104AC0007CA110221346CDE900210290F02296210C
:104AD0000A2004F09BFA00F003FF044605F0F6FEFE
:104AE000A07928B3B4F9000000EE100AB8EEC00AAD
:104AF000DFED760A80EE201AB0EE418AB4F90200AA
:104B000000EE100AB8EEC00ADFED700A80EE201A3F
:104B1000F0EE418AB4F9040000EE100AB8EEC00AC3
:104B2000DFED6A0A80EE201AB0EE419A0020A071F3
:104B300005F006FFFEF706F9A168401AB0F5FA7F06
:104B40000BD99FED290AB0EE408A9FED270AF0EEBF
:104B5000408A9FED250AB0EE409AB5EEC08AF1EE8C
:104B600010FA09D1F5EEC08AF1EE10FA04D1B5EED3
:104B7000C09AF1EE10FA0DD04FF61F0054A110228A
:104B80001346CDE900210290F022AA210A2004F068
:104B90003DFA0BE01F2053A110221346CDE900215E
:104BA0000290F022AA210A2004F030FA8DED038A47
:104BB000CDED048A8DED059A03A800F0A1FB064611
:104BC00066B14FF478404CA110221346CDE9002184
:104BD0000290F022AA210A2004F018FA142006F00C
:104BE00013F800BF12E70000000000000D0A3E3E6F
:104BF0003E2043686173736973204A4554534F4E96
:104C00002D54454C454F50205265616479203C3C01
:104C10003C0D0A000D0A5B54657374335D205374B8
:104C2000617274696E67205265616C74696D65208C
:104C300053657269616C204C6F6F7020776974687E
:104C40002053656C662D4865616C696E672E2E2E4B
:104C50000D0A00005374617475733A204F46464C38
:104C6000494E452E2E2E20202020200053746174A2
:104C700075733A205265636F6E6E656374696E6713
:104C80002E2E2E004D6F64653A2057414954204620
:104C90004F522053594E432000000000537461745A
:104CA00075733A2043414E204F4E4C494E452020CB
:104CB000200000004D6F64653A20464F5257415224
:104CC00044204143544956452000000000007A44E6
:104CD0004374726C3A204A4554534F4E20434D441E
:104CE000000000004374726C3A2053544F5020432C
:104CF0004D442020000000004374726C3A20434170
:104D00004E455252202020200000000038B50446B5
:104D100030210D48FBF7F1FD54B14FF080400623E0
:104D20004FF4E022011200900020FFF7CBFD08E0D5
:104D3000002006234FF4E0224FF480010090FFF79B
:104D4000C1FD002038BD0000F80200200048704777
:104D5000F802002010B54FF4FA74FDF7F3FF06498E
:104D6000896A401AA04203D90020034981F82C0027
:104D7000014890F82C0010BDF802002070B50446E0
:104D80000D461646082E00D070BDA4F5807005288B
:104D900021D2DFE800F003080E141A001349284658
:104DA00000F076FC18E011491031284600F09DFC17
:104DB00012E00E491831284600F07EFC0CE00B4949
:104DC0002031284600F042FC06E008490831284618
:104DD00000F047FC00E0D7E700BFFDF7B3FF034951
:104DE0008862012081F82C0000BFCDE7F802002086
:104DF0002DED088B98B0C7A005F044F989E1C822D1
:104E000014A9D048006806F08DFD0546012D7DD11E
:104E10009DF85C2015A91498FFF7B0FFFFF796FFE7
:104E200004461498B0F5827F71D00BDCB0F5807F1A
:104E300012D0A0F2011000286AD0012869D00228FF
:104E400068D139E1B0F5806F65D0A0F2014000284B
:104E500078D00128F4D13BE1BBA005F013F9E37849
:104E6000B4F9060000EB80004200A08800EB80004F
:104E70004100BFA005F006F96378A2782178C8A0A8
:104E800005F000F9B4F916000090B4F91430B4F943
:104E90001220B4F91010CFA005F0F4F8B4F91E00F8
:104EA00000EE100AB8EEC00ADFEDD50A20EE200AA7
:104EB00010EE101A084607F0CDFC41EC180BB4F9BF
:104EC0001C0000EE100AB8EEC00ADFEDCD0A20EE9D
:104ED000200A10EE101A084607F0BCFC41EC190B32
:104EE000B4F91A0000EE100AB8EEC00ADFEDC40AE9
:104EF00020EE200A10EE101A084607F0ABFC41EC39
:104F00001A0BB4F9180000EE100A05E0E3E0D4E053
:104F1000D0E0D0E0DDE0D9E0B8EEC00ADFEDB80ABD
:104F200020EE200A10EE101A084607F093FC41EC20
:104F30001B0B8DED048B8DED029B8DED00AB53ECC7
:104F40001B2B00E0C3E0AFA005F09CF8BAA005F071
:104F500099F8A08800EB8000400000EE100AB8EE3F
:104F6000C00ADFEDBE0A80EE201A11EE106A30464C
:104F700007F070FC41EC180BB4F9060000EB800060
:104F80004000E178CDE902108DED008BB4A2322112
:104F900007A8FBF7AFFA1F2007A910221346CDE997
:104FA00000210290F022D2210A2004F02FF8B4F957
:104FB0001600B4F91410B4F91220CDE900210290C2
:104FC000B4F91030ACA2322107A8FBF793FA4FF6E0
:104FD0001F0007A910221346CDE900210290F022FC
:104FE000E6210A2004F012F8B4F91E0000EE100ABF
:104FF000B8EEC00ADFED820A20EE200AFDEEC00AFC
:10500000B4F91C0000EE100AB8EEC00A9FED7C1A3D
:1050100020EE010ABDEEC00AB4F91A0001EE100A32
:10502000B8EEC11ADFED761A21EE211ABDEEC11AD3
:105030008DED001A8DED010ACDED020AB4F91800CC
:1050400000EE100AB8EEC00ADFED6D0A20EE200A6D
:10505000BDEEC00A10EE103A8DA2322107A8FBF770
:1050600049FA4FF61F0007A910221346CDE9002187
:105070000290F022FA210A2003F0C8FF8A488BA28E
:105080003221036807A8FBF735FA8748006810B19A
:105090004FF4784001E04FF4FC6007A9102213465A
:1050A000CDE900210290F0224FF487710A2003F02D
:1050B000ADFF0FE00EE00DE00CE0B4F90C20B4F908
:1050C0000A10B4F9080000F063FC03E000BF00BF61
:1050D00000E000BF00BFFFF73DFE68B14FF4FC6089
:1050E00077A110221346CDE900210290DC22BE21D7
:1050F0000A2003F08BFF0CE04FF4784074A11022DB
:105100001346CDE900210290DC22BE210A2003F0E3
:105110007DFF74E60D0A3E3E3E204368617373696D
:105120007320466565646261636B2050726F6365CE
:105130007373696E67205461736B2053746172746A
:105140000D0A0000140000200D0A2D2D2D204348CB
:1051500041535349532053544154555320444153D0
:1051600048424F415244202D2D2D0D0A00000000D1
:10517000566F6C74616765203A202535646D562042
:105180007C2043757272656E743A202535646D41DA
:10519000207C20534F433A2025336425250D0A00F7
:1051A00053746174652020203A202564202020203B
:1051B0002020207C20506572697068203A20307869
:1051C000253032582020207C204D6F64653A202500
:1051D000640D0A005370656564286D6D2F73293A5C
:1051E0002057313D25642C2057323D25642C205713
:1051F000333D25642C2057343D25640D0A00000002
:105200000AD7233C416E676C652864656729203A9C
:1052100020464C3D252E32662C20524C3D252E3208
:10522000662C2046523D252E32662C2052523D25BA
:105230002E32660D0A0000002D2D2D2D2D2D2D2D29
:105240002D2D2D2D2D2D2D2D2D2D2D2D2D2D2D2D8E
:105250002D2D2D2D2D2D2D2D0D0A000000007A4411
:105260004241543A252E3166562025303264252598
:10527000202535646D4100005370643A2025346464
:105280002025346420253464202534640000000087
:10529000416E673A20253364202025336420202581
:1052A00033642020253364004000002055415254CF
:1052B00033204F52452D4552523A20256C7500003F
:1052C0005374617475733A204F4E4C494E4520001B
:1052D0005374617475733A204F46464C494E4500ED
:1052E0001CB504466946204600F064FA0822694667
:1052F000D001FFF73DFB08B103201CBD0020FCE7F7
:105300001CB504460CB901201CBD6946204600F0BE
:1053100057FA0822694640F20240FFF729FB08B11C
:105320000320F1E70020EFE71CB50446694620465C
:1053300000F0C2FA0822694640F20140FFF718FB6C
:1053400008B103201CBD0020FCE700000EB50120C1
:1053500006F030F83A4908604FF4784039A120222D
:105360001346CDE900210290DC220A21084603F011
:105370004DFE4FF4784035A118221346CDE90021A7
:105380000290DC222F210A2003F040FE4FF47840E7
:1053900032A110221346CDE900210290DC224C21DB
:1053A0000A2003F033FE1F2030A110221346CDE95E
:1053B00000210290DC2264210A2003F027FE2FA0A6
:1053C00004F060FE39A004F05DFE41A004F05AFE36
:1053D0000020FFF79BFC18B948A004F053FE04E03E
:1053E00053A004F04FFE00BFFEE74FF4E13000F0A1
:1053F00007FB59A004F046FE002210210A2005F008
:10540000EBFF614908600846006820B95FA004F01E
:1054100039FE00BFFEE70A2166A004F033FE5A48B9
:105420000068FFF7D3FA6E48012100238022CDE9FE
:1054300000106CA16E4806F0C1FC05F0CFFD0EBD5A
:105440001800002053544D3332000000436861734C
:1054500073697320546573740000000041544F4D0C
:1054600040414C49454E54454B00000043414E20BD
:105470004E4F524D414C204D6F6465000D0A3D3D2D
:105480003D3D3D3D3D3D3D3D3D3D3D3D3D3D3D3D4C
:105490003D3D3D3D3D3D3D3D3D3D3D3D3D3D3D3D3C
:1054A0003D3D3D3D3D3D0D0A0000000043686173F8
:1054B0007369732044726976657220546573742031
:1054C00050726F6772616D2053746172740D0A00BF
:1054D0003D3D3D3D3D3D3D3D3D3D3D3D3D3D3D3DFC
:1054E0003D3D3D3D3D3D3D3D3D3D3D3D3D3D3D3DEC
:1054F0003D3D3D3D3D3D3D3D0D0A00005B496E6932
:10550000745D2043686173736973206472697665A2
:105510007220696E697420737563636573732028E4
:105520004E4F524D414C206D6F6465290D0A0000AD
:105530005B496E69745D20436861737369732064AD
:10554000726976657220696E6974206661696C653E
:1055500064210D0A000000005B496E69745D204AF9
:105560004554534F4E2055534152543320444D41DE
:105570002D49444C4520456E67696E652053746122
:10558000727465642E0D0A00140000205B496E6978
:10559000745D204372656174652043414E2052580A
:1055A000207175657565206661696C6564210D0AF9
:1055B000000000005B496E69745D2043414E20523B
:1055C0005820717565756520637265617465642C1A
:1055D0002063617061636974793D25640D0A000080
:1055E0000400002073746172745F7461736B000057
:1055F00031A6000800F00101104A1160C0F340011B
:105600000F4AC2F8BC12C0F380010C4A383A11604C
:10561000C0F3C001121D1160C0F30011094A1160EE
:10562000C0F34011121D1160C0F38011121D1160F2
:10563000C109054AC2F8A81270470000B882414269
:10564000008041429C0242420000424202780A70BD
:1056500042784A7082788A70C278CA7002790A7178
:1056600070474278037842EA032212B20A80C27875
:10567000837842EA032212B24A804279037942EAED
:10568000032212B28A8082798A71C279CA71704704
:1056900002780A7042784A7082788A70C278CA703A
:1056A0004279037942EA03228A80C279837942EA05
:1056B000032212B2CA8070474278037842EA03227A
:1056C00012B20A80C278837842EA032212B24A8078
:1056D0004279037942EA032212B28A80C27983793D
:1056E00042EA032212B2CA8070474278037842EA43
:1056F000032212B20A80C278837842EA032212B2ED
:105700004A804279037942EA032212B28A80C2793E
:10571000837942EA032212B2CA80704770B5044608
:105720000420FDF7CFFF0A48046025464FF47A7045
:1057300045434FF0E020006940F002004FF0E021C7
:10574000086108464561006940F00100086170BDCC
:105750001C00002030B50446002504E04FF47A70A8
:1057600000F004F86D1CA542F8D330BD70B50346B7
:1057700000224FF0E02675690D4E366803FB06F4F3
:105780004FF0E026B16910E04FF0E026B0698842A2
:105790000BD0884202D20E1A324402E02E1A0E4476
:1057A00032440146A24200D300E0EDE700BF70BDE5
:1057B0001C00002000220A604A6008707047000048
:1057C00030B5D0ED001AB0EE610AD0ED011AF0EE5E
:1057D000610AD0ED021AB0EE611AF0EE001AB4EED2
:1057E000E10AF1EE10FA04DDF0EE001AB0EE610A03
:1057F0000AE0F8EE001AB4EEE10AF1EE10FA03D274
:10580000F8EE001AB0EE610AF0EE001AF4EEE10ACA
:10581000F1EE10FA04DDF0EE001AF0EE610A0AE093
:10582000F8EE001AF4EEE10AF1EE10FA03D2F8EE07
:10583000001AF0EE610AF0EE001AB4EEE11AF1EE91
:1058400010FA04DDF0EE001AB0EE611A0AE0F8EE8C
:10585000001AB4EEE11AF1EE10FA03D2F8EE001AD3
:10586000B0EE611ADFED131A60EE211AFDEEE11AB7
:1058700011EE905A2AB2DFED0F1A60EEA11AFDEE7A
:10588000E11A11EE905A2BB2DFED0A1A61EE211ADD
:10589000FDEEE11A11EE905A2CB2150A0D704A7005
:1058A0001D0A8D70CB70250A0D714C7100258D710C
:1058B000CD7130BD00007A4400220A604A60087051
:1058C0007047000000BF054A126802F04002002A3B
:1058D000F9D0C2B2014B5A6070470000001001407D
:1058E00000487047C40400202DE9F04105460E46EB
:1058F0000A2E01DABDE8F081002441E0285DA528E8
:105900003CD1601C285C5A2838D104F10900285C7D
:10591000EE2833D10027002004E02118695C4F40B5
:10592000411CC8B20828F8DB04F10800285CB84222
:1059300023D1E01C295CA01C285C41EA002000B2B5
:1059400012490880601D295C201D285C41EA002066
:1059500000B20E494880E01D295CA01D285C41EA88
:10596000002000B20949888001208871FDF7EAF91A
:105970000649886004F1090084B200BF601C84B24B
:10598000A6F10A00A042B9DA00BFB3E7C4040020C0
:10599000FEB504460D4616460027AA208DF80000E5
:1059A00055208DF8010001208DF80200200A8DF8A5
:1059B0000300E0B28DF80400280A8DF80500E8B273
:1059C0008DF80600300A8DF80700F0B28DF8080057
:1059D000002004E01DF800104F40411CC8B2092807
:1059E000F8DB8DF80970EE208DF80A000A230B22EF
:1059F00069460248FEF747FAFEBD0000A0030020FA
:105A000010B586B0044600BF0020009046480068EC
:105A100040F48020444908600846006800F4802073
:105A2000009000BF00BF00BF002000903E4810382B
:105A3000006840F002003C491039086008460068E0
:105A400000F00200009000BF00BF08150190022086
:105A5000029001200390022004900720059001A9E4
:105A60003248FDF757F84FF4006001900220029091
:105A700001A92E48FDF74EF82D482E49086008462A
:105A8000446000218160C160016181610C2141613C
:105A9000FEF7C8F800BF00200090234810380068C7
:105AA00040F400102049103908600846006800F4EE
:105AB0000010009000BF00BF1F48204908604FF051
:105AC0000060486000211D488160C1604FF4806122
:105AD00001610021416181614FF48071C16149021E
